:020000040040BA
:1020000000000000000000000000000000000000D0
:1020100000000000000000000000000000000000C0
:1020200000000000000000000000000000000000B0
:1020300000000000000000000000000000000000A0
:1020400000000000B83E030052060000000000003F
:10205000000000000000000000000000005C4300E1
:1020600000400220C54640000080022000400220BF
:102070000000000000000000000000000000000060
:1020800000F002F800F072F814A696E8000CB244D2
:10209000B344DA4501D100F069F8BAE80F000FA6A1
:1020A00096E83000A5EB040504EB0607AAEB07044D
:1020B000A7F101074FEA15154FEA3414A4F1010402
:1020C000AC4201D300F052F813F0010F18BFFB1A15
:1020D00043F0010300F001F8DBE71847C03C0300C0
:1020E000E03C03000A444FF0000C10F8013B13F0F1
:1020F000070408BF10F8014B1D1108BF10F8015B61
:10210000641E05D010F8016B641E01F8016BF9D153
:1021100013F0080F1EBF10F8014BAD1C0C1B09D1AA
:102120006D1E58BF01F801CBFAD505E014F8016B1C
:1021300001F8016B6D1EF9D59142D6D37047DEDEF2
:102140007047DEDE0023002400250026103A28BF59
:1021500078C1FBD8520728BF30C148BF0B60704719
:102160001FB531F039F91FBD10B510BDDFF80CD027
:10217000FFF7F6FF00F0F6FF00F0CBF90080022039
:1021800003B4FFF7F1FF03BC00F068FE704753EAA9
:10219000020C00F069802DE9F04B4FF00006002B97
:1021A0001FBFB3FA83F503FA05F424FA05F65E407F
:1021B00012BF1643B2FA82F502FA05F4C5F1200502
:1021C0001EBF22FA05FC44EA0C04203556EA044CF2
:1021D0004FEA144418BF641C4FF000084FF0000988
:1021E000904271EB030C39D3002919BFB1FA81F782
:1021F00001FA07F6B0FA80F700FA07F6C7F12007F0
:102200001EBF20FA07FC46EA0C062037B6FBF4FC9A
:10221000A7EB0507103F07F01F0BCBF120062CFAA8
:1022200006F60CFA0BFB44BFB3460026202FA4BFD2
:102230005E464FF0000B5BEA060C08BF4FF0010B47
:1022400019EB0B0948EB0608ABFB027C06FB02CC42
:102250000BFB03CCC01B71EB0C01C1E70B46024624
:1022600041464846BDE8F08B13B5084318BF4FF010
:10227000FF300146AFF30080BDE81C407047B2F16B
:1022800020030AD5C2F1200301FA02F120FA03F378
:1022900041EA030100FA02F0704700FA03F14FF03F
:1022A0000000704753EA020C23D010B54C1084EAAA
:1022B000530404D54042C1F1000138BF491E1B42FE
:1022C00004D55242C3F1000338BF5B1EFFF75FFF26
:1022D00014F0804F04D04042C1F1000138BF491EC4
:1022E00014F0004F04D05242C3F1000338BF5B1E0C
:1022F00010BD13B540424FF0000070EB0104B8BFB1
:10230000012001F0004100281CBF6FF000414FF098
:10231000FF30AFF300801CBD40EA010310B59B07FE
:102320000FD1042A0DD310C808C9121F9C42F8D03F
:1023300020BA19BA884201D9012010BD4FF0FF30F0
:1023400010BD1AB1D30703D0521C07E0002010BD06
:1023500010F8013B11F8014B1B1B07D110F8013B92
:1023600011F8014B1B1B01D1921EF1D1184610BD73
:10237000032A40F2308010F0030C00F0158011F8B1
:10238000013BBCF1020F624498BF11F801CB00F889
:10239000013B38BF11F8013BA2F1040298BF00F8DD
:1023A00001CB38BF00F8013B11F0030300F025809A
:1023B000083AC0F0088051F8043B083A51F804CBC1
:1023C000A0E80810F5E7121D5CBF51F8043B40F887
:1023D000043BAFF30080D20724BF11F8013B11F892
:1023E00001CB48BF11F8012B24BF00F8013B00F8D6
:1023F00001CB48BF00F8012B704710B5203AC0F060
:102400000B80B1E81850A0E81850B1E81850A0E8C7
:102410001850203ABFF4F5AF5FEA027C24BFB1E860
:102420001850A0E8185044BF18C918C0BDE81040A3
:102430005FEA827C24BF51F8043B40F8043B08BFAC
:102440007047D20728BF31F8023B48BF11F8012B73
:1024500028BF20F8023B48BF00F8012B704702F06C
:10246000FF0343EA032242EA024200F00AB802F004
:10247000FF0343EA032242EA024200F024B84FF08D
:1024800000020429C0F0128010F0030C00F01B8041
:10249000CCF1040CBCF1020F18BF00F8012BA8BF4F
:1024A00020F8022BA1EB0C0100F00DB85FEAC17C13
:1024B00024BF00F8012B00F8012B48BF00F8012BC6
:1024C00070474FF0000200B51346944696462039F7
:1024D00022BFA0E80C50A0E80C50B1F12001BFF4DD
:1024E000F7AF090728BFA0E80C5048BF0CC05DF843
:1024F00004EB890028BF40F8042B08BF704748BF91
:1025000020F8022B11F0804F18BF00F8012B704704
:10251000704710B50446AFF300802046BDE8104078
:10252000FFF72EBEFFE720BFFDE7DEDED0B502AF2E
:102530006C466FF30204A5460AF077FEA7F1080483
:10254000A546D0BDD0B502AF6C466FF30204A546D8
:102550000AF076FEA7F10804A546D0BDD0B502AFBB
:102560006C466FF30204A5460AF075FEA7F1080455
:10257000A546D0BDD0B502AF6C466FF30204A546A8
:102580000AF074FEA7F10804A546D0BDD0B502AF8D
:102590006C466FF30204A54617F08DFBA7F1080403
:1025A000A546D0BDD0B502AF6C466FF30204A54678
:1025B0000BF018F8A7F10804A546D0BDD0B502AFBE
:1025C0006C466FF30204A54609F082FFA7F10804E8
:1025D000A546D0BDD0B502AF6C466FF30204A54648
:1025E00009F078FFA7F10804A546D0BDD0B502AF29
:1025F0006C466FF30204A54609F06EFFA7F10804CC
:10260000A546D0BDD0B502AF6C466FF30204A54617
:1026100009F064FFA7F10804A546D0BDD0B502AF0C
:102620006C466FF30204A54609F05AFFA7F10804AF
:10263000A546D0BDD0B502AF6C466FF30204A546E7
:1026400009F050FFA7F10804A546D0BDD0B502AFF0
:102650006C466FF30204A54609F0EDFAA7F10804F1
:10266000A546D0BDD0B502AF6C466FF30204A546B7
:1026700009F0F7FAA7F10804A546D0BDD0B502AF1E
:102680006C466FF30204A54603F050FAA7F1080464
:10269000A546D0BDD0B502AF6C466FF30204A54687
:1026A0000AF02CFFA7F10804A546D0BDD0B502AFB3
:1026B0006C466FF30204A5460AF028FFA7F1080450
:1026C000A546D0BDD0B502AF6C466FF30204A54657
:1026D0000AF024FFA7F10804A546D0BDD0B502AF8B
:1026E0006C466FF30204A5460AF020FFA7F1080428
:1026F000A546D0BD88B0079006910592079800F0D6
:10270000070004900498C0F10700052803D3FFE7F1
:102710000420019004E00498C0F107000190FFE755
:102720000198039004980430062803D8FFE700209E
:10273000009003E0049803380090FFE700980290AF
:1027400006980399012202FA01F101390840029B1F
:10275000984005999A40013A1140084308B07047E3
:1027600000200A2103F0E4B9044600200A2103F006
:10277000DFB900F108064FF4603766CE07EAC232CF
:1027800061F30E3205F0070142EA814106F00702CB
:1027900041EA42517047C4F20001086049F24D100D
:1027A0007047C4F2000108607047D8F8000020F0BC
:1027B0000200C8F80000704749F24D118842704786
:1027C00004460120002100252246FFF758BD4FF6A0
:1027D0004170C0F2030070474FF44272096810FB69
:1027E0000210294622467047044600200A2103F0C1
:1027F0009FB900200A2103F09BB902FB0911224670
:10280000FFF7C5BC40F2E2400BF0E6BB4BF660348C
:10281000C4F20100C2F2000401687047D0F80E5003
:10282000D0F80A60B5427047C217401A62EBE171F6
:1028300010EBE17041EBE17280EAE17082EAE17253
:10284000B0EB080072F100007047D9F80410294479
:1028500039447047C4F88802C4F8140170474FF433
:102860007A720023FFF793BC054649F24D1085426A
:10287000704749F24D11884270470446002012907B
:10288000CDE910008DF84C00CDE90E00CDE90C002B
:102890000A90CDE908007047DAF80410B5F8A802EC
:1028A000B1427047054649F24D108542704702908B
:1028B000332001220023019000200390704748F24A
:1028C0001C3700240126C4F20405C2F20007704739
:1028D00044F6B420C2F20100007801287047C4F227
:1028E00000031C6824EA0000084318607047D8F809
:1028F000000040F00200C8F800007047A0684FF4E4
:10290000FF5140F20C1201EA4011C4F204028B584C
:1029100043F080638B5004F1280109F0E8B90020EE
:10292000207049F24D1010BD4FF44272096810FB3F
:102930000210017A0029704700200A2103F0F8B83C
:10294000002003F00FB9101A63EB010110EBE170E6
:1029500041EBE17280EAE17B304682EAE17A17F0EE
:10296000C9BFD9F80410394429447047814600276B
:102970004FF4987A4FF00008002400917047D6E990
:10298000350117F0C3BFCDF8A8042C2017FB006059
:10299000006970470090002016F0FDBF9DF83F10C1
:1029A0009DF83E00090641EA0040D4F8801200BAC2
:1029B0004843000C70474FF47A720023FFF7E7BBDF
:1029C00001200021FFF75BBC49F24D1010BD2846E5
:1029D00006B0B0BD20460EF03DB849F24D11884218
:1029E00070474FF44272096810FB0210214670478D
:1029F00094F91E00B0F1FF3F70474FF44272006837
:102A000011FB0200214670474DF808ED0CF0BCF9AF
:102A1000FF285DF808EB7047044609F0F1BA42F26E
:102A20009A2080BD05EB82010022C1F81822B0BDBA
:102A3000C4F20100016801604FF6E861CFF6FF7152
:102A40004250704705206063012009F0C8BA002099
:102A500003F088B851F8043CD1E900750C31013A13
:102A60001844384428447047C4F20000016080BD17
:102A7000C4F2000000687047D8F8401060F31241BB
:102A8000C8F84010704744F22402C4F201025368AF
:102A90001843506010680843106049F24D10B0BDF3
:102AA0004FF44272096810FB02131B7A43F01003C3
:102AB000D02B7047002005950490CDE90240704767
:102AC000032002F039BD94F8130200F00700062835
:102AD0007047E1B211FB0A9631460DF009B8069035
:102AE0000D20CDE90380D6E9000170470A9100214D
:102AF0000B90D5F88000012270470090012016F05D
:102B00004ABF013109BA0A0E8DF84F200A0C090A92
:102B10008DF84D10704790F8932090F8F25190F88E
:102B200098402A447047DBF804004FF6EC61704788
:102B300043F65830C2F2010000EB840070470320D6
:102B400002F0FABCC4F20001096821FA00F000F0BA
:102B5000010070474DF808ED0C460CF015F9002CFB
:102B60005DF808EB7047064649F24D108642704703
:102B7000064649F24D108642704794F8EE1104F56E
:102B8000FA722846334604F003B9E1B211FB0A9603
:102B900031460EF0DCB8B86007F10C00FFF791BCCD
:102BA0005AF8041CDAF80020FFF7E2BB49F24D1195
:102BB0008842704744F6A420C2F2010070474000EA
:102BC0000323814003FA00F070474FF44272096812
:102BD00010FB02107047002002F0C4BF00203146F5
:102BE000CDE90300CDE90100704701200AF0FDBDE9
:102BF000A0FB090201FB0921BBEB00007AEB0100FD
:102C0000704720460FF0B4BBD4F880000021304755
:102C1000002002F08DBF4EF21802C4F200021368C9
:102C200070474DF808ED14460D460CF0ADF8002D38
:102C30005DF808EB7047304606B070BD49F24D179D
:102C40000646B84270474BF60430C2F200000078E6
:102C50007047064649F24D10864270472868013495
:102C60003844007A86F82C017047D4E9350117F012
:102C70004DBE044649F24D10844270470023FFF7D1
:102C800086BA4EF21402C4F200021368704743F68B
:102C900058350446007AC2F2010505EB8001D1F8EF
:102CA0001822002A704742F29A207047012002F051
:102CB00043BC00200121022316F06DBE49F24D11E4
:102CC00088427047064649F24D108642704744F2EA
:102CD0001C70C0F2430050F824000068704702FAEC
:102CE00000F04EF20C02C4F2000213687047C4F206
:102CF0000100016841F40051016044F6F030C4F273
:102D000001000168704742F29A20B0BD032002F032
:102D100013BC02230090002016F03DBE2021304657
:102D2000FFF7CFBB012002F007BC44F22C71C0F2C8
:102D3000430151F82410704742F29A2010BD054615
:102D400049F24D10854270474BF60430C2F2000044
:102D500070474BF2E7364FF0000970474FF61842C4
:102D600040F2E731CFF6FF72704744F280050C461F
:102D7000C4F20105D5F8806B09F0C0BA4FF4427275
:102D8000096810FB0210017AD029704742F29A2696
:102D9000032C70470B200AF021BCD4E935232046D0
:102DA0002DF09CBC48F20000C2F20200854600F003
:102DB00003F8FFF765F9DEDE80B54EF68851CEF2F6
:102DC00000014FF47000086000F002F880BDDEDE04
:102DD0007047DEDE4EF60C50CEF200000068C0F305
:102DE0000220704782B0019000910198002809D418
:102DF000FFE70098000101994EF20042CEF2000276
:102E000088540AE000980001019901F00F014EF684
:102E10001452CEF200028854FFE702B07047DEDEA3
:102E200083B00290029800F0070000904EF60C511B
:102E3000CEF200010868019001984FF6FF021040A1
:102E400001900198009A40EA02200022C0F2FA5252
:102E5000104301900198086003B0704781B0009062
:102E6000FFE720BFFDE7DEDE80B584B0039002916E
:102E700001208DF8010000208DF80300FFE79DF888
:102E80000300092800F33781FFE700208DF80200D6
:102E9000FFE79DF802000F2814DCFFE703999DF877
:102EA0000220885C029B9B5C434044F60070C0F2A9
:102EB0004300C05C8854FFE79DF8020001308DF8A4
:102EC0000200E6E7039840788DF8070003994879F7
:102ED00048700399487A48710399487B48729DF875
:102EE000070003994873039880788DF807000398CA
:102EF00080798DF806000399887A88700399887B19
:102F000088719DF80700039988729DF8060003995F
:102F100088730398C07B8DF807000399C87AC8733B
:102F20000399C879C8720399C878C8719DF80700D9
:102F30000399C8709DF80300082800F39780FFE705
:102F400000208DF80200FFE79DF80200032800F240
:102F50008C80FFE79DF8020080008DF80400039844
:102F60009DF804208118805C4B788A78C978584095
:102F7000504048408DF8070003989DF80410405CCD
:102F80008DF8060003989DF804208118805C49782C
:102F900048408DF805009DF8050000F0C7F88DF851
:102FA000050003999DF80420885C9DF80530584081
:102FB0009DF807305840885403999DF80400014457
:102FC0004878897848408DF805009DF8050000F0A4
:102FD000ADF88DF8050003999DF804000144487888
:102FE0009DF8052050409DF80720504048700399F7
:102FF0009DF8040001448878C97848408DF80500A0
:103000009DF8050000F092F88DF8050003999DF8F1
:103010000400014488789DF8052050409DF8072061
:103020005040887003999DF804000844C0789DF8CA
:10303000061048408DF805009DF8050000F076F870
:103040008DF8050003999DF804000144C8789DF8A7
:10305000052050409DF807205040C870FFE79DF8BC
:10306000020001308DF802006EE7FFE7029A137844
:10307000517B44F60070C0F24300415C59409DF81A
:10308000013059401170029A5378917B415C59404C
:103090005170029A9378D17B415C594091700299AA
:1030A000CA780B7BC05C5040C87004208DF80200C9
:1030B000FFE79DF802000F2810DCFFE702999DF85A
:1030C00002208B18885C13F8043C58408854FFE7B2
:1030D0009DF8020001308DF80200EAE79DF801003A
:1030E00000F024F88DF80100FFE79DF8030001309F
:1030F0008DF80300C3E600208DF80200FFE79DF87D
:1031000002000F280FDCFFE703999DF80220885C7E
:10311000029B9B5C58408854FFE79DF802000130F9
:103120008DF80200EBE704B080BDDEDE81B08DF8E3
:1031300003009DF803008DF802009DF90200C0090C
:103140008DF802009DF8020000F01B008DF80200CF
:103150009DF8030000F07F019DF8020080EA410025
:1031600001B070479EB000201490EFF310801B90C8
:103170001B98159001201D901D9880F310881598BC
:10318000139008F013FA08F049FA04208DF867004C
:103190009DF8671048F25410C2F2000050F8210068
:1031A00018901898102804D0FFE718980AF09FFB91
:1031B00000E0FFE704208DF85F009DF85F1048F203
:1031C0005410C2F2000050F82100169016981028F2
:1031D00004D0FFE716980AF08AFB00E0FFE72FF023
:1031E000BFFB0AF04EF800202FF0CFFB01F07CFA75
:1031F00000285FD1FFE70BF057FF44F20C4CC0F200
:10320000430CCDF800C0DCF80000DCF80410DCF85A
:103210000820DCF80C30DCF810E0DCF814400D94E9
:10322000CDF830E00B930A9209910890DCF8180071
:10323000DCF81C10DCF82020DCF82430DCF828C096
:10324000CDF848C0119310920F910E9044F2F43EC5
:10325000C0F2430EDEF80000DEF80410DEF80820AD
:10326000DEF80C30DEF810C0DEF814E0CDF81CE01B
:10327000CDF818C005930492039102900BF076FCF0
:1032800008A80BF0E7FD0190019849F24D11884222
:1032900005D1FFE702A80BF05BFB0190FFE7019867
:1032A00049F24D11884204D0FFE7FF2008F0A8FB47
:1032B000FFE7FFE708F0F2F8FF280CD0FFE725F062
:1032C0001DF849F24D11884204D0FFE7FF2008F0B5
:1032D00097FBFFE7FFE713981A901A981C901C9829
:1032E00080F3108808F0DAF8FF280BD0FFE701F030
:1032F000FBF918B9FFE70BF0BFFF02E00AF022FF6D
:10330000FFE7FFE7FFE724F07DFF0BF051FFFAE74F
:1033100089B008904FF0FF30079008980590002082
:1033200004900898E8B3FFE7FFE7059838B1FFE796
:10333000079801300790059840080590F5E7079831
:10334000C0F11F0003900898039988400290BDF8CF
:103350000A00ADF81A00BDF81A0000FB00F0000CDE
:1033600045F6470100FB01F040080190BDF81A0046
:1033700048F2931100FB01F00199401A47F2BE0197
:10338000CCF6672108444009079900EB0160000C66
:1033900044F6105100FB01F00090BDF802000490CB
:1033A000FFE7049809B0704780B5BCB084463E98EA
:1033B000CDF8ECC08DF8EB1039928DF8E3308DF834
:1033C000E20000230193319330939DF8E3008DF8E0
:1033D00047008DF846300F9344F60050C0F2196054
:1033E0000E900E980F9942F21072FEF7D0FE014631
:1033F00001980D919DF9E210A0EB81100C903B9883
:1034000080788DF82F009DF82F00082803D8FFE75B
:103410001F20379014E09DF82F00182803D8FFE7ED
:103420007F2037900BE09DF82F00202803D8FFE77E
:103430005B20379002E07F203790FFE7FFE7FFE750
:103440003B98C078411D01208840369037987F28EE
:1034500003D1FFE74020359002E051203590FFE78F
:103460003B9800798DF82E009DF82E1045F27700DC
:10347000C0F2430000EB41014A78012191403491B0
:103480009DF82E1010F811003390339818B1FFE713
:103490000420329002E034983290FFE79DF8EB0070
:1034A000002818BF01202F902F98012819D1FFE77D
:1034B0003B984079042814DCFFE73B994878497928
:1034C000C0EBC00245F20000C0F243000244107994
:1034D000527902444FF40070D0400431884031905A
:1034E00000E0FFE72F9801280AD1FFE73B98807999
:1034F000032805DCFFE73B9880790130309000E03D
:10350000FFE79DF8EB00033818BF01202E909DF8CF
:10351000EB00033818BF01202D903B984078C0EB9A
:10352000C00145F20000C0F24300425C012101FAF3
:1035300002F22C923B9A5278C2EBC20202445278B9
:1035400091402B913B994978C1EBC10101448978A5
:1035500020912099B1FA81F149091F913999C90047
:103560000A913B994978C1EBC1010844807980B93F
:10357000FFE70A9800F2491140F23562C6F24C3278
:10358000A1FB0221C90901EB410100EB01102890C8
:1035900003E00A9806302890FFE73B984078C0EB9C
:1035A000C00145F20000C0F243000844C0782790F3
:1035B00027982099013100FB01F02A902898209942
:1035C000013100FB01F02990369832990844359971
:1035D00000FB01F022902D982A9900FB01F02B9915
:1035E00000FB01F023902E98299900FB01F02C9903
:1035F00000FB01F024902F98319900FB01F03099E5
:1036000000FB01F025903B98007820B9FFE743F6D6
:1036100067601E9003E047F6CD401E90FFE73798A5
:103620007F2803D1FFE70D201A9002E04D201A9069
:10363000FFE72B98000209901E9A1F98099900FB3A
:1036400001201B902C98000209901E9A1F9809993E
:1036500000FB01201C901E981D902298239B249A09
:10366000259918441044084426901A98229900FB82
:1036700001F016901B98239900FB01F015901C98FF
:103680002499159A00FB012015901D982599159AEB
:1036900000FB01201590159827F018FE1990199835
:1036A000000119903B98007820B9FFE74FF4207093
:1036B000179003E04FF460701790FFE7199817997F
:1036C000A0FB0101000A40EA0160149026991698B7
:1036D00000EB01201499084418901898000A2190D2
:1036E0002198FFF715FE00EB8000400013900D9825
:1036F0001399411A4FF0000060F100000691079005
:10370000069812903B98007858B9FFE72D9840B181
:10371000FFE712980C99884203DDFFE70C9812909E
:10372000FFE71298B0F1FF3F0CDCFFE7129801129F
:10373000042000EB810004909DF84800C0F58070E3
:10374000059007E012980012800004909DF8480050
:103750000590FFE70598800003901298012806DB8A
:10376000FFE70498039900EB2120049005E00498FA
:103770000399A0EB21200490FFE79DF847000499EE
:10378000401A8DF80B009DF80B008DF846009DF84F
:1037900046003CB080BDF8B5002000220023039015
:1037A000CDE9010001A948F24E3008F0F5FA04B065
:1037B00080BDF8B502903320012200230190002043
:1037C000039001A944F2DB3008F0E6FA04B080BDB2
:1037D000F8B5CDE90201332001220023019001A9AF
:1037E0004FF48D6008F0D8FA04B080BDF8B5102110
:1037F00001220023CDE90201C920019001A940F670
:10380000043008F0C9FA04B080BDF8B510210122D7
:103810000023CDE90201C920019001A94FF40D70E8
:1038200008F0BAFA04B080BDF8B502903320012246
:10383000002301900020039001A94CF2C12008F060
:10384000ABFA04B080BDF8B500200022002303903D
:10385000CDE9010001A944F20F6008F09DFA04B01F
:1038600080BDF8B5102101220023CDE902013920E5
:10387000019001A944F6772008F08EFA04B080BDCB
:10388000F8B5029036200122002301900020039019
:1038900001A94CF6913008F07FFA04B080BDF8B56C
:1038A000142101220023CDE902013920019001A950
:1038B0004CF28D0008F070FA04B080BDFEB56022B5
:1038C000019033200023CDE904123921009000201B
:1038D000022203910290694640F6385008F05CFAE3
:1038E00006B080BD2DE9F041144688460646B3F186
:1038F000CF3F0ED1A01908F1040122465AB151F868
:10390000043CD1E900750C31013A1844384428448C
:10391000F4E7002701E040F0010700F009FE30461F
:10392000414622463B4601F42BFC044600F0F4FDE0
:103930002046BDE8F081DEDE1FB50C4800230024E0
:10394000D0E900128068039044F2A710CDE901127B
:1039500001A90122FFF7C6FF49F24D1202999042D8
:1039600018BF2146084604B010BD00BF38444300CC
:10397000F8B502903320012200230190002003902B
:1039800001A944F2DB30FFF7ADFF04B080BDF8B50C
:10399000242101220023CDE902013C20019001A94C
:1039A0004FF40D70FFF79EFF04B080BD10B586B0D8
:1039B0001346B54A45F29404146000226724049229
:1039C0000DF1170203923A22CDE9004203AA00F05A
:1039D000F7FA06B010BD00BFF0B593B00E46042153
:1039E0001546044605F0AEFFA0B32846182105F0A1
:1039F000A9FF78B3C622332005964FF0000C019240
:103A000040F65E6204900A90CDE902CCCDE907024F
:103A100039200D9095E8CD00D5E905150993CDE93C
:103A2000112CCDE90B7606224FF0CF3306903620CD
:103A30000E91CDE90F5001A948F2825004F08DFD9E
:103A400049F24D11084A884204BF029921608E490B
:103A50000A6004E08C480349416042F29A2013B0A6
:103A6000F0BD00BF25130100ABB1FFFFBCB5864C14
:103A700048F6D52525603A240194069C009400F070
:103A800089F8BCBDBFB5804C47F2F10525603A24EA
:103A900003940A9C0294099C0194089C009400F0F1
:103AA00003F804B0B0BD00BF2DE9F04196B0044664
:103AB0000E46084608211D46174605F043FF00281C
:103AC0005FD020460C2105F03DFF002859D0384634
:103AD000082105F037FF002853D0DDF87080082159
:103AE000404605F02FFF00284BD02846082105F05E
:103AF00029FF002845D07068002842D01E99A04AAE
:103B000091421CBF9F4A914235D1DDF87CC0C92249
:103B10001D9B019239220B933623CDE9081C3321DA
:103B2000CDE90F020A9304920D92139207224FF0EF
:103B3000CF330791D4E90001CDE90201D7E90001B3
:103B4000CDE90501306800260E90D5E900010C96FC
:103B5000CDE91101D8E90001CDE9140101A94CF228
:103B6000C12004F0FAFC49F24D11039A884218BFB3
:103B70003246A2600BE0844A914202D16A68002A70
:103B8000C3D1EA484EF22D51016042F29A2016B09C
:103B9000BDE8F081F0B58FB004460E460846082116
:103BA0001F46154605F0CEFEA8B320460C2105F0B1
:103BB000C9FE80B32846082105F0C4FE58B3DDE9EC
:103BC0001410C922362307970092392206934FF02A
:103BD000CF3309920C920522CDE9041033200390D3
:103BE000D4E90001CDE90101D6E90001CDE90A01DE
:103BF000D5E90001002508950D9044F2A7100E911B
:103C0000694604F0AAFC49F24D11029A884218BF95
:103C10002A46A26005E0E9484FF21F21016042F206
:103C20009A200FB0F0BD00BFF8B5332101224FF04C
:103C3000CF330191010EC0F307400391029001A917
:103C400044F20F6004F089FC04B080BDBCB50E4C9A
:103C500049F2C77525603A240194069C009400F04F
:103C600095F8BCBDBFB5084C47F6E35525603A242E
:103C700003940A9C0294099C0194089C009400F00F
:103C800005F804B0B0BD00BF243001402DE9F0417B
:103C900096B00C460C211E461746054605F052FE0E
:103CA000002863D03846082105F04CFE00285DD07E
:103CB00020460C2105F046FE002857D0DDF8708024
:103CC0000821404605F03EFE00284FD0304608212E
:103CD00005F038FE002849D07868002846D01E99A3
:103CE000274A91421CBF274A914239D1DDF87CC056
:103CF000C9221D9B0192049239220B933623CDE9F0
:103D0000081C3321CDE90F020A930D92139207226A
:103D10004FF0CF330791D5E90001CDE90201D4E995
:103D20000001CDE90501386800270E90D6E90001B1
:103D30000C97CDE91101D8E90001CDE9140101A9E1
:103D40004FF40D7004F009FC49F24D11039A069BE3
:103D5000884218BF3A46AA6018BF3B46A3600BE0F2
:103D6000094A914202D17268002ABFD1D5484EF665
:103D7000A631016042F29A2016B0BDE8F08100BF82
:103D8000051CE50A052AE50A0523E50AF0B58FB00A
:103D90000E460C211F461546044605F0D3FDA8B378
:103DA0003046082105F0CEFD80B32846082105F0F5
:103DB000C9FD58B3DDE91410C922362307970092D4
:103DC000392206934FF0CF3309920C920522CDE9A8
:103DD000041033200390D4E90001CDE90101D6E9B4
:103DE0000001CDE90A01D5E90001002508950D90F3
:103DF00048F21A100E91694604F0AFFB49F24D11DA
:103E0000029A884218BF2A46A26005E0AD484FF6E4
:103E10009801016042F29A200FB0F0BD70B586B0F3
:103E20000D4604211646044605F08CFDB8B133203A
:103E3000694602224FF0CF33CDE9045603900020AB
:103E4000CDE90100C620009048F6EA1004F085FB99
:103E500049F24D11884204BF0199216005E099485B
:103E600049F20811016042F29A2006B070BD00BF0D
:103E70001FB50C21044605F065FDA8B1C92001223B
:103E80004FF0CF330190D4E90001CDE9020101A93F
:103E90004CF65D1004F061FB49F24D11039A884223
:103EA00018BF0022A26005E0864849F281710160D6
:103EB00042F29A2004B010BD70B590B00E460421B5
:103EC0001546044605F03EFD38B32846182105F096
:103ED00039FD10B3002133200596CDE90211C6212A
:103EE00004900A90019140F22F71CDE90701392029
:103EF0000D9095E84F006D69CDE90B320991CDE940
:103F00000E6505224FF0CF33069001A948F282508A
:103F100004F023FB0299216005E06A484CF2D0418D
:103F2000016042F29A2010B070BD00BF28300140FD
:103F3000FEB50C224FF0CF33CDE904123921022215
:103F400003910021CDE901013320694600904FF42F
:103F50008D6004F002FB06B080BDDEDE70B58AB075
:103F600006460D4608460821144605F0EBFCE8B16C
:103F70002046082105F0E6FCC0B1392003224FF0AD
:103F8000CF33019004900020CDE9086033200790E2
:103F9000D5E90001CDE90201D4E90001CDE905012F
:103FA00001A940F29C6004F0D8FA05E045484BF2C4
:103FB000DE71016042F29A200AB070BD28300140E3
:103FC000F0B58FB00E460C211F461546044605F08D
:103FD000B9FCA8B33046082105F0B4FC80B32846EC
:103FE000082105F0AFFC58B3DDE91410C9224FF0E9
:103FF000CF330D9700923922039209920522CDE921
:1040000007103320069036200C90D4E90001CDE94A
:104010000101D6E90001CDE90401D5E9000100253F
:104020000E95CDE90A0169464FF40D6004F095FA4A
:1040300049F24D11029A884218BF2A46A26005E053
:10404000204849F6FA51016042F29A200FB0F0BDC3
:1040500070B58AB00C460C211646054605F072FC78
:1040600040B320460C2105F06DFC18B3C92008961A
:10407000002603224FF0CF3301900490332009969D
:104080000790D5E90001CDE90201D4E90001CDE9AD
:10409000050101A94CF2297004F05FFA49F24D11B3
:1040A000039A069B884218BF3246AA6018BF33465F
:1040B000A36005E003484BF26511016042F29A20CB
:1040C0000AB070BD28300140B0B586B0E8B10C46EA
:1040D000D9B10546C9200222002300900390D5E9FA
:1040E0000001CDE90101D4E90001CDE904016946EF
:1040F00044F2094006F0BCFD49F24D11884201BF6F
:104100000299059AA960A26001E042F29A2006B0E5
:10411000B0BDDEDE1FB50C4800230024D0E900123C
:104120008068039045F22D40CDE9011201A90122DA
:1041300006F09EFD49F24D120299904218BF2146A9
:10414000084604B010BD00BF44444300FEB50491CE
:1041500033210222002303911021CDE90101CC205B
:1041600069460090002005904CF61B4006F080FD4B
:1041700006B080BDF8B50020002200230390CDE9F1
:10418000010001A948F2825007F006FE04B080BD8C
:10419000F8B50020002200230390CDE9010001A919
:1041A0004CF2F54007F0F8FD04B080BDF8B50020F2
:1041B000002200230390CDE9010001A948F2B67066
:1041C00007F0EAFD49F24D11401AB0FA80F04009BB
:1041D00004B080BDF8B50290332001220023019085
:1041E0000020039001A948F21A1007F0D5FD04B091
:1041F00080BDF8B5082101220023CDE90201392054
:10420000019001A94CF65D1007F0C6FD04B080BD19
:1042100010B10078800707D111B10878800703D169
:104220002AB11078800702D042F29A20704749F2F2
:104230004D10704710B10078800707D111B1087890
:10424000800703D12AB11078800702D042F29A2069
:10425000704749F24D10704710B586B013466D4A4D
:10426000074C14600022672404920DF11702039298
:104270001D22CDE9004203AAFFF7A2FE06B010BD41
:104280008BE2FFFFF0B593B00E46042115460446BD
:1042900005F058FBA0B32846182105F053FB78B36E
:1042A000C622332005964FF0000C019241F6BC4225
:1042B00004900A90CDE902CCCDE9070239200D9097
:1042C00095E8CD00D5E905150993CDE9112CCDE987
:1042D0000B7606224FF0CF33069036200E91CDE9B3
:1042E0000F5001A948F2825004F037F949F24D11FC
:1042F000084A884204BF0299216046490A6004E0E6
:1043000044480349416042F29A2013B0F0BD00BF17
:104310009E19010032ABFFFF2DE9FF41DDF8288037
:104320000E4607461546104619461C464246FFF7FC
:104330006FFF49F24D11374A884213D11D210B9866
:10434000234603912949CDE9008038460291314640
:1043500016462A46FFF7A8FB43F62951316004B000
:10436000BDE8F0814AF60401516004B0BDE8F08177
:104370001FB51346274A46F2FF3414600022CDE9E8
:1043800002221D220192244A009202AAFFF702FC97
:1043900004B010BD2DE9FF41DDF828801546074621
:1043A0000E46084619461C464246FFF743FF49F2AF
:1043B0004D11184A884213D11D210B9823460391B1
:1043C0000A49CDE9008038460291314616462A4610
:1043D000FFF75CFC44F61B21316004B0BDE8F081BE
:1043E0004AF28B11516004B0BDE8F081051CE50A6A
:1043F0001FB51346074A47F2F10414600022CDE9C5
:1044000002221D220192044A009202AAFFF7BEFC7A
:1044100004B010BD243001400507E50A90B1FEB597
:10442000CDE9041233210222002303911021CDE9AA
:104430000101C9206946009040F2026007F028FDA2
:1044400006B080BD42F29A207047F8B5CDE902016E
:10445000332001220023019001A948F6031007F040
:1044600017FD04B080BDA1B1FEB501903320392203
:1044700000230090D1E9000103920222CDE904015A
:1044800000206946029040F6044007F001FD06B0A6
:1044900080BD42F29A207047C8B11FB504460D484E
:1044A0000023D0E900128068039047F6A520CDE9EB
:1044B000011201A9012209F04BF8DDE90212E180A5
:1044C000090C6180110CA280218004B010BD42F261
:1044D0009A20704750444300DAB110B586B01446B4
:1044E0000022CDE9042201ABC32207C33320694671
:1044F000022200904BF22120002309F029F8DDE987
:104500000412E180090C6180110CA280218006B0A8
:1045100010BD42F29A2070470B4850E8001F002956
:1045200018BF013940E80012002AF6D1704700BFD9
:10453000054850E8001F013128BF4FF0FF3140E827
:104540000012002AF5D1704748BC0020F8B50821B8
:1045500001220023CDE902013C20019001A944F28F
:1045600087300BF099F904B080BDF8B50421012221
:104570000023CDE902013C20019001A948F2063058
:104580000BF08AF904B080BDBFB5C0B10C46B1B123
:1045900005460B480023D0E90012806803904CF2D6
:1045A0008100CDE9011201A901220BF075F949F250
:1045B0004D11884202BFDDE9020128602160BFBDC4
:1045C0005C44430078B1F8B5006833210122002330
:1045D000029000200191039001A944F283100BF096
:1045E0005BF904B080BD42F29A20704778B1F8B50B
:1045F00000683321012200230290002001910390E2
:1046000001A94FF401700BF047F904B080BD42F2EC
:104610009A207047F8B502903320012200230190C0
:104620000020039001A948F202100BF035F904B004
:1046300080BDF8B5CDE902013320012200230190AD
:1046400001A94FF481600BF027F904B080BD2DE97A
:10465000F041144688460646B3F1CF3F07D1A01972
:1046600008F10401224622B1FEF7F4F9FBE7002726
:1046700001E040F00107FFF75BFF3046414622466C
:104680003B4600F4FDFC0446FFF746FF2046BDE82C
:10469000F081F8B5FEF70BF901A948F21A10FFF7FF
:1046A000D6FF04B080BDF8B5202101220023CDE95A
:1046B0000201C920019001A94CF28D00FFF7C7FF4C
:1046C00004B080BD43F68071C2F201010120087080
:1046D000FEF772FBFEF746FD43F68071C2F2010160
:1046E000002008707047DEDE43F68070C2F20100E1
:1046F000007800F00100704770B586B00D46FEF7F7
:1047000073F888B142F29A260F2C0AD84DB1FEF701
:10471000FDFAFEF728FA04D128680C2808D942F2DD
:104720009A26FEF758FA01E04DF28166FEF783BA49
:104730002979042901D3FF29F1D16979042901D309
:10474000FF29ECD1A979042901D3FF29E7D1E9791F
:10475000082901D3FF29E2D10C2807D0092808D164
:10476000A8680828DBD31428D9D802E0A868002854
:10477000D5D0FEF79FF90C20019001A8FFF78FF824
:104780000646CEE770B586B00D46FEF72DF8C0B1EF
:1047900095B1FEF78BFAFEF7E6F90FD1012C0BD895
:1047A000288848B1B0F5806F06D8A888C0087E2850
:1047B0009CBF687B032808D942F29A26FEF70BFAC1
:1047C00001E04DF28166FEF736BAA87910289CBF49
:1047D000E8791028F0D86888B0F5007F9CBFA87BE6
:1047E0000F28E9D8E87B07289CBF287B0128E3D85D
:1047F000FEF760F90E20019001A8FFF750F8064679
:10480000DCE770B586B00D46FDF7EEFFD8B1ADB16F
:10481000FEF74CFAFEF7A7F912D1032C0ED86888E0
:10482000C0071CBFA87A072808D8698AA87EC907CC
:1048300018BF072802D8A97A814208D142F29A26E5
:10484000FEF7C9F901E04DF28166FEF7F4B9FEF713
:1048500031F91520019001A8FFF721F80646EFE78E
:1048600070B586B00D46FDF7BFFFC8B1FEF78EFAF2
:1048700013D895B1FEF71AFAFEF775F90DD1A87A9B
:1048800003289CBF687A032805D8E97A03299CBFCE
:10489000297A032908D942F29A26FEF79CF901E009
:1048A0004DF28166FEF7C7B995F900201F2AF2DCA8
:1048B000D3B21A0152B20F2B01D8502AEBDC03F00D
:1048C000F003102B01D1202AE5DC95F90120032A01
:1048D000E1DC95F904201F2ADDDCD3B21A0152B2C3
:1048E0000F2B01D8502AD6DC03F0F003102B01D196
:1048F000202AD0DC95F9052042F29A26032ACCDC46
:1049000008408142C9D1FEF7D5F80420019001A8E2
:10491000FEF7C5FF0646C0E7B0B586B0FDF764FFF9
:10492000B0B184B1FEF7F2F9FEF709FA0DD1608853
:104930004EF6FF71A0F58050884204D3207861784C
:104940000843012808D942F29A25FEF744F901E00C
:104950004DF28165FEF73BB800200594CDE90300D8
:10496000CDE9010001A8FEF79AFF0546EDE770B515
:1049700086B00D46FDF738FFD8B1FEF707FA15D817
:10498000A5B1FEF793F9FEF7EEF80FD128780328CA
:104990000AD86878042801D3FF2805D1E8780128CF
:1049A0009CBFE879032808D942F29A26FEF713F94A
:1049B00001E04DF28166FEF73EB92879082801D35F
:1049C000FF28F1D16879042801D3FF28ECD1A87918
:1049D0000328E9D8A878042801D3FF28E4D1FEF7FA
:1049E00069F80F20019001A8FEF759FF0646DDE7A0
:1049F0002DE9F04186B00C460546FDF79DFF28B332
:104A00000F2D49F24D1749F24D1888BF42F29A27EF
:104A1000FEF74CF9404518BF074649F24D16032CE6
:104A200088BF42F29A26474518BF3E4646450AD1FE
:104A30000020CDE90245CDE904000220019001A843
:104A4000FEF72DFF0646FEF7C6F801E04DF281663F
:104A5000304606B0BDE8F08170B586B00C4605461C
:104A6000FDF76AFFE8B1FCB16068E8B142F29A264E
:104A7000032D1BD82068B0F5807F17D1FEF716F9FB
:104A8000FEF771F812D1FF20CDE90250022001900B
:104A9000D4E90001CDE9040101A8FEF700FF0646B4
:104AA00004E04DF2816603E042F29A26FEF793F8A5
:104AB000FEF7C1B870B586B00D46FDF795FEE8B1BA
:104AC000FEF764F917D8B5B1FEF720F9FEF74BF8F9
:104AD00011D1287B6A7AAB7AEE7A297A1043AA7BC5
:104AE000104318433043084301289CBF287803280B
:104AF00008D942F29A26FEF76EF801E04DF281667F
:104B0000FEF799B8687B10F07C0FF2D16878042822
:104B100001D3FF28EDD1A878042801D3FF28E8D1DC
:104B2000E878042801D3FF28E3D1A888B0F57F4FA7
:104B3000DFD8FDF7BFFF0620019001A8FEF7AFFE0A
:104B40000646D8E770B586B00D46FDF74DFE70B14C
:104B5000FEF71CF916D8ADB1FEF7D8F8FEF703F84A
:104B600010D12878032805D942F29A260AE04DF29E
:104B7000816609E0FDF79EFF1320019001A8FEF772
:104B80008EFE0646FEF727F8FEF755B8B0B586B09C
:104B9000FDF72AFE28B33CB3FEF7B8F8FEF7CFF8CE
:104BA00024D1E078022801D3FF281DD160780528A0
:104BB00001D3FF2818D1A078042801D3FF2813D1EE
:104BC0002078022801D3FF280ED1002005940490FC
:104BD000CDE902000B20019001A8FEF760FE05461A
:104BE00004E04DF2816503E042F29A25FDF7F3FF00
:104BF000FDF7EDBE70B586B00E46FDF7F5FD88B148
:104C000042F29A25032C22D80EB3FEF74FF8FEF796
:104C100096F81CD13078092801D3272805D942F20B
:104C20009A2514E04DF2816513E0002100EB40006D
:104C30000491CDE902410A210191074901EB0010DD
:104C4000A0F5D870059001A8FEF729FE0546FDF7EE
:104C5000C2FF284606B070BD1C484300B0B586B000
:104C6000FDF7C2FD88B19CB1FEF720F8FEF767F8AA
:104C700010D1002005940490CDE902000820019095
:104C800001A8FEF70CFE054604E04DF2816503E045
:104C900042F29A25FDF79FFFFDF799BEB0B586B0A9
:104CA000FDF7A2FDB0B184B1606870B1FEF72EF8D7
:104CB000FEF745F80BD160880021B1EB103F04D11D
:104CC000217862781143012908D942F29A25FDF72B
:104CD00082FF01E04DF28165FDF779BE0021059468
:104CE000CDE902110121820701914FEA900218BF1C
:104CF00001EB9002049201A8FEF7D1FD0546E6E71C
:104D000070B586B00D46FDF76FFD98B1FEF73EF821
:104D10000DD865B1FDF7FAFFFDF725FF07D1FDF7C7
:104D2000C9FE0720019001A8FEF7B9FD0646FDF770
:104D300052FF01E04DF28166FDF77DBF70B586B090
:104D40000D46FDF751FDE0B1FEF720F816D8ADB1E4
:104D5000FDF7ACFFFDF707FF10D1287803280BD82B
:104D60006878042801D3FF2806D1A87803289CBFBF
:104D7000A888B0F5007F08D942F29A26FDF72BFFEC
:104D800001E04DF28166FDF756BFE87803289CBF2D
:104D9000E8880128F0D8FDF78DFE1020019001A8C9
:104DA000FEF77DFD0646E9E72DE9F04186B00C46A9
:104DB0000546FDF7C1FD28B30F2D49F24D1749F205
:104DC0004D1888BF42F29A27FDF770FF404518BF83
:104DD000074649F24D16032C88BF42F29A264745F2
:104DE00018BF3E4646450AD10020CDE90245CDE92F
:104DF00004000320019001A8FEF751FD0646FDF7CF
:104E0000EAFE01E04DF28166304606B0BDE8F08171
:104E100070B586B00C460546FDF78EFDE0B1F4B1E5
:104E20006068E0B142F29A26032D1AD820688028E3
:104E300017D1FDF73BFFFDF796FE12D1FF20CDE91C
:104E4000025003200190D4E90001CDE9040101A83A
:104E5000FEF725FD064604E04DF2816603E042F2CE
:104E60009A26FDF7B8FEFDF7E6BE70B586B00D4692
:104E7000FDF7BAFC08B3FDF789FF1BD8D5B1FDF7E4
:104E800045FFFDF770FE15D1E87829796A79AB798D
:104E90000843E97910431843084301289CBF287848
:104EA000032805D8287A03289CBFA878032808D9A6
:104EB00042F29A26FDF78FFE01E04DF28166FDF782
:104EC000BABE6878042801D3FF28F1D1687A022895
:104ED000EED8A87A042801D3FF28E9D1FDF7EAFD2E
:104EE0000920019001A8FEF7DAFC0646E2E7B0B51A
:104EF000FDF73AFC78B1032000F01EFB054649F2AD
:104F00004D10854203D12046FEF7BAFC054600202D
:104F100000F028FE01E04DF281652846B0BDDEDEDE
:104F2000F0B585B00C460546FDF763FCE0B142F2F2
:104F30009A26012D2BD854B3FDF7C2FDFDF77EFE56
:104F400025D101A84B49042200F0CDFDB8420ED175
:104F500085B1BDF80C0000F01F016FF35F3001EB6D
:104F60005021C0F343100DE04DF2816611E042F292
:104F70009A260CE00298C0F3431200F01F01C0F320
:104F800043201144084449F24D1640002060FDF7CB
:104F9000D7FC304605B0F0BD70B50C460546FDF7B0
:104FA00028FCC0B142F29A260F2D11D884B1FDF72A
:104FB00087FDFDF7DDFD0BD120680021B1EB902FBF
:104FC00004D1606810B1B0F5806F08D942F29A261A
:104FD000FDF7B6FC01E04DF28166304670BD284613
:104FE0000221224600F04AF90646F1E770B50C4668
:104FF0000546FDF7FEFB90B142F29A260F2D0BD825
:1050000054B1FDF75DFDFDF7B3FD05D12846012143
:10501000224600F033F90646FDF792FC01E04DF21E
:105020008166304670BDDEDE7FB50446FDF7E1FBEC
:10503000A8B1BCB1FDF744FD49F24D160546B0429A
:1050400012D168460B49042200F04DFDB04209D14F
:10505000009849F24D156FF39F50206004E04DF227
:10506000816503E042F29A25FDF76AFC284604B008
:1050700070BD00BFDC50064870B50C460546FDF714
:10508000B8FBF8B142F29A260F2D2CD85CB3FDF78D
:1050900017FDFDF76DFD26D1194890F8651090F8C1
:1050A000642091B1016D01F10803B2B1AB4218D394
:1050B000082D9CBF0A1DAA4213D3042D17D8A9425C
:1050C0000FD314E04DF281660FE052B1016D04314F
:1050D000A94228BF052D04D309E0AB4201D3092D15
:1050E00005D242F29A26FDF72BFC304670BD00EB4C
:1050F00085012046012200F0F6FC0646F3E700BFDA
:105100009C500648FEB50C460546FDF772FB88B17B
:1051100042F29A26012D17D8B4B1FDF7D1FCFDF764
:105120008DFD11D101A800F0BBFCB84205D13DB105
:10513000029806E04DF2816608E042F29A2603E00A
:10514000019849F24D162060FDF7FAFB3046FEBD8E
:1051500005A20EA352F8212053F8211001FB0020D4
:10516000AD490844704700BF000000000040000047
:10517000085000009C500000DC500000EC50000083
:105180000851000068510000A0510000001000000C
:10519000081000009400000004000000100000004F
:1051A0001C00000060000000380000000C0000003F
:1051B00070B50446FDF71DFBF0B104B3A068F0B173
:1051C000FDF77EFC054649F24D1085422AD1174E67
:1051D0000121306882074FEA900218BF01EB90026C
:1051E00023689D074FEA930518BF01EB9305AA4278
:1051F00008D942F29A250CE04DF2816514E042F2A2
:105200009A250FE0A06806F1080100F06CFC054645
:1052100030682060716861600021B1EB103F18BFF9
:1052200042F29A25FDF78CFB284670BD00400648E7
:10523000F0B585B00E460446FDF7DBFAC0B142F288
:105240009A2594B18EB1FDF73BFC49F24D17054606
:10525000B8420AD1FDF7C2FC01A800F054FC054693
:10526000B84202BF01AA07CA07C4FDF769FB01E003
:105270004DF28165284605B0F0BDDEDEF8B5144676
:10528000644A136923F00103022B40F08580537DAB
:10529000157D3BB113685E1D55B186427CD3042851
:1052A00003D909E0002D77D01368834274D303E05B
:1052B000864228BF05286FD30523B0FBF3F30528EA
:1052C00003EB8305034628BF5B1B0025042888BF2A
:1052D000012515442D7D012D5ED17BB1D57D012D9C
:1052E0005AD1DD0713D10025042888BF0125907D00
:1052F00000EB5300ED02431E906814E000230428E5
:1053000088BF0123907D012846D1D8020FE04FF4D9
:105310004065052838BF4FF48065581C4FF0FF33B7
:1053200003EB5000936803FB0050002834D43A4B41
:10533000022903EB800609D001292DD106F12001B5
:1053400020460522BDE8F84000F0CDBB9768102F3D
:1053500022D3D4E90115284600F0B8FB49F24D11DB
:10536000884218D1A7F11002D4E900073918B1F525
:10537000806F02D8F38F994211D20023B3EB902FA4
:1053800002D1F38F994211D242F29A20B1F5806F87
:1053900098BF49F24D10F8BD42F29A20F8BD9842EC
:1053A00009D2181A874223D2002325E0984212D24C
:1053B0001B1A002114E0C11A8A421FD9002097420B
:1053C0001FD97B1A93424FF0000388BF531A8F42B4
:1053D00098BF034616E0C11A0023521A38BF1A4676
:1053E00006EB8101C0F58060606005EB83000EE094
:1053F0003B1A934288BF1346002103E0002300209C
:1054000000E03B4606EB810105EB80001A46403187
:1054100098E700BFEC5006480000064810B5FDF7BD
:105420009FF950B1FDF78BFBFDF723FC02D1FEF78E
:10543000B2F90446FDF70BFB01E04DF28164204612
:1054400010BDDEDE7FB5B74E0C460546D6E900013D
:10545000281A029064EB0100039001A800F008FFF5
:10546000D6E90223C6E900548018B06043EB01007E
:10547000F0607FBD10B5AB4A4B4908684968D2E976
:105480000043041B71EB030328BF10BD0023C2E9D6
:105490000033C2E90233BDE81040FFF7D3BF00BFBD
:1054A00080B5A04842F6A011006988421CBF284878
:1054B00080BD00F01DFD0C49BE484158A5290DD105
:1054C00002680168BC4800230360100744F23450AE
:1054D00003D5490558BF49F24D1080BDB64800219B
:1054E000016044F2345080BD10FDFFFF70B50C46E2
:1054F0000646FDF735F9D8B1FDF721FBFDF7D2F9E6
:1055000013D1300B42F29A250A2898BFB4F5304FD8
:105510000BD8A019B0F5304F07D87848A10000EBA0
:105520008600FCF7CEFF49F24D15FDF790FA01E039
:105530004DF28165284670BD80B500F063FAFDF735
:1055400035FB1CBF024880BDBDE8804000F03AB981
:1055500041FF030070B5E54C134D28686968D4E934
:105560000023861A71EB030605D200220023C4E94A
:105570000022C4E9022242404B401A4312D0FFF7F6
:1055800061FFD4E90201AB68AA68834204D2821A9F
:10559000801A61F1000103E0121A801841F1000144
:1055A000C4E9020170BD00BFF4A80140CF48B0F9C2
:1055B0008C10B1F1FF3F00DD704790F8AC1002296C
:1055C00004D0D0F8B40012498842F5D111480168DE
:1055D000026801F58031090C61F31742026001682D
:1055E000026801F58071090A61F30E220260016A06
:1055F000026A01F58031090C61F317420262016A07
:10560000026A01F58071090A61F30E220262704795
:10561000000E2707A8B001402DE9F0470646FDF728
:105620009FF8E8B1002E5ED0FDF789FAFDF73AF950
:105630005BD1D6F824E0BEF1000F54D0D6F804C0F8
:10564000BCF1000F4FD0BEF1020F0CD3D6E90221FE
:10565000ACF10100AEF10103504301FB030105E091
:105660004DF2816543E0B26802FB0CF13368B1F59D
:10567000304F9CBF180B0A2812D942F29A25B1F577
:10568000806F32D8B3F5304F2FD3C8180138800A55
:105690002C2828D81948A3F5304300F5C02005E090
:1056A000C8180138B0F5304F1DD21448D6E905416D
:1056B00000EB830AF068F36992004FEA80084FEA32
:1056C00083098E000021714514D06046534625465B
:1056D00028B11F68134401382F603544F8E7C244ED
:1056E0004C440131EFE742F29A25FDF7B0F9284624
:1056F000BDE8F08749F24D15F7E700BF008000488C
:10570000FFF70EBC10B50122EFF3108182F3108871
:10571000E24A9369D469126A82604460036081F34B
:10572000108810BD50BC0020BFB504460120EFF327
:10573000108580F310885CB1FFF7B2FEFDF736FAF2
:1057400008D101A9204600F009F849F24D1001E006
:1057500042F29A2085F3108804B0B0BD2DE9F041E3
:1057600086B00D46044600F0C3FBBC4E3768D6F841
:105770002480FFF77FFE7068B94A0490B168002664
:105780001660C5E90060A96004986430049041F196
:1057900000006946059003A800F080F8DDE90101EA
:1057A000C4E90060B806A16048BFC4F8048006B030
:1057B000BDE8F081D8A8014008800140FFF716BC81
:1057C000FFF732BC07480068A5281CBF44F23450DC
:1057D000704705480068C0074DF2816008BF49F274
:1057E0004D107047E8A5014004900140FFF744BC0C
:1057F000FFF788BCB0B50446FCF7B2FF80B194B1A6
:10580000FDF79DF9FDF74EF80FD100200621FFF7B7
:105810009FFC01462046182200F065F9054604E089
:105820004DF2816503E042F29A25FDF710F9284612
:10583000B0BDFFF7B1BBFFF7BBBCFFF7F9BCF8B5D4
:105840000446FCF78DFF00B314B304F10C001421DF
:10585000FCF715FE00200E21C4E90010A060FDF742
:1058600061FA49F24D170546B84213D104F1100010
:10587000FDF7BCFFB84249F24D150BD00646204655
:105880002021FCF7FCFD354604E04DF2816503E084
:1058900042F29A25FDF7DBF82846F8BD7FB50C46A5
:1058A000EB49D0E90150D1E900325E1B72EB0006F2
:1058B0000BD2EB1A02939041D1E90256039001A852
:1058C00000F0D6FC401971410CE05B1BD1E9025697
:1058D00062EB00000293039001A800F0C9FC281AB3
:1058E00066EB0101C4E901017FBD00BF50BC00208F
:1058F000F8B50546EFF31087012080F310880121E9
:10590000FDF786F938B1D24C42F6A01120698842E1
:1059100004D1444E60E04DF281665FE0FFF752FF34
:10592000FDF7D0F958D1042D54D82E48C821066867
:105930002046FCF7C6FD2C48E421FCF7C2FD05EB30
:1059400085002A4913232C4A84F8AC5049F6404C70
:105950006B4351F820002649D258284BC4F8C000A8
:1059600006F07060B0F1E06FC6F307203CBF4AF26A
:105970000011C0F277016261F2B2012602FB0C3223
:10598000002300FB0C101B49096888634A6381F8F7
:10599000DD30AE49C1E900338B60A16966F30701D0
:1059A000A16184F8BC30C4E9162023F0B5FE23F0D1
:1059B00087FF45F00401124849F24D160429016899
:1059C00014BF21F4806141F48061016042F6A010AF
:1059D000206101E042F29A26FDF739F887F310883A
:1059E0003046F8BDE0A50140F43901206C4E43007B
:1059F00070B87700FC4E4300F84D4300006C6B001C
:105A000084B0014010B5924A42F6A0140146054800
:105A10001369A34204D192690A4218BF49F24D109A
:105A200010BD00BF41FF030080B5FFF785FDFDF706
:105A3000BDF812D100F05CFA08480023084A01685A
:105A40000068136044F23452400544F2345058BFA9
:105A500049F24D10090758BF104680BDD8A8014033
:105A600008800140022804D8784951F8200000B18C
:105A700000477047B0B507F06FFFFDF797F80CD1FE
:105A8000F649614B8A691C685D689B680B62CD6151
:105A90008C618B6962F307038B61B0BD50BC002041
:105AA00010B5044600200721FFF752FB24B1203037
:105AB000810701D1A10702D042F29A2010BDD0E99E
:105AC0000010C4E9001049F24D1010BD08B1820762
:105AD00002D042F29A20704780B58900FCF7CFFCD3
:105AE00049F24D1080BD21B118B18B0701D1830758
:105AF00002D042F29A20704780B59200FCF77DFCFC
:105B000049F24D1080BD1FB5039000200C46029055
:105B10000220CDE900006846FDF777FEFDF746F864
:105B200002BF0399C968216004B010BD07F018BF17
:105B3000B0B5104A104B0A4C02EB8000002250E82E
:105B4000005F9D4202D140E800452DB101328A42FA
:105B500024BF0020B0BDF2E7BFF35F8F0120B0BDCE
:105B60003B8FEEF90349BFF35F8F034A41F82020D2
:105B7000704700BF50810020C4701106B0B5EFF32C
:105B80001085012080F310880121FDF741F858B1FC
:105B90000420FFF749FFFDF76CF802D1FDF753FE33
:105BA0000446FCF754FF01E04DF2816485F3108850
:105BB0002046B0BD70B50446EFF31086012080F397
:105BC00010880121FDF724F8C0B10220FFF72CFF57
:105BD000FCF768FE0FD10C48A04B01684268806852
:105BE0001862DA6199610421986961F3070098618C
:105BF000204607F099FEFCF72AFF01E04DF281658F
:105C000086F31088284670BDEC4D4300B0B50123E3
:105C1000EFF3108283F31088022812D80B4C00296E
:105C200044F8201003FA00F08C4B93F8BC4044EA8F
:105C3000000508BF24EA000549F24D1083F8BC5066
:105C400001E042F29A2082F31088B0BDD83A0120D8
:105C500050BC0020FEF750BDB0B50446FCF780FDF7
:105C600060B1FDF75FF8FCF71DFE0CD11A2C08D8C7
:105C700000202146FDF7ACFD054604E04DF28165AC
:105C800003E049F24D15FCF7E2FE2846B0BDDEDE2A
:105C90002DE9F84F0446FCF763FDD0B16748006872
:105CA00094B1E17901290FD82168654A654B0A440E
:105CB0009A4209D8A28802F5206292B2B2F5A05F9A
:105CC0009CBFA279012A09D942F29A25FCF7BFFEAE
:105CD00001E04DF281652846BDE8F88F5A4A9142AD
:105CE0000CD3000CC0B2052808D8012101FA00F03D
:105CF00010F0290F02D04BF2E735E7E70120FFF75C
:105D000093FEFCF7CFFDE1D1504DA86CC0075ED1EA
:105D1000A86EC0075BD120684D4908444D498842B0
:105D2000D2D84D49DFF86C95B0FBF1F089F8AD00A1
:105D30002068C9F824002068C9F82800A079A9F8CB
:105D40008E00E07989F8BD00FFF704FCFDF7F4FD53
:105D5000C9F8B40099F8AC004149AB464FF0000ACD
:105D6000012814BFA0880020A9F88C0000B20A22E4
:105D700000230F1AD9F81400A0FB0701FCF707FA5B
:105D8000054638480E46A7FB0078284643463A4663
:105D900007F010FE284631463A46434607F0D2FF48
:105DA0002846314608F0EAF80546012649F24D102A
:105DB00085420FD1FFF7FAFB206823F011FB70B981
:105DC000A079012808D0E0B923F00EFE06E04DF2DC
:105DD00081657BE7012004E023F022FE88B144F2D4
:105DE0003455D9F8181066F30F31C9F81810C9E9FD
:105DF00009AAD9F8181089B241EA0040C9F8180078
:105E000064E7DBF8000049F24D15C9F86000DBF8E3
:105E10000800C9F86400DBF80C00C9F86800DBF87A
:105E20004C00C9F86C00DBF83C00C9F87000DBF8E6
:105E30004000C0F30330C9F8740047E7E0A5014013
:105E400000FA9CFF00162600401F7D006CB0014048
:105E500000C9A0FFFFB32D00009E070050BC00202A
:105E600080969800C0D4010070B586B00D460446F7
:105E7000FCF776FCB8B142F29A26072C10D87DB117
:105E8000FCF75DFEFCF71EFF0AD10020059504908B
:105E9000CDE902400D20019001A8FDF700FD064666
:105EA000FCF7D5FD01E04DF28166304606B070BDCD
:105EB000FEF768BCFEF7A5BCFEF7D2BCFEF72CBD12
:105EC000FEF755BDFEF794BDFEF7F4BDFEF73ABEF2
:105ED000FEF75CBEFEF78EBEFEF7C0BEFEF7DEBE6E
:105EE000FEF70EBFFEF72ABFFEF75EBFFEF7BDBF8F
:105EF00004484169B1F1553FFBD04FF0AA31016030
:105F0000704700BF08800140002200F003B800F095
:105F100001B8DEDE2DE9F04F8BB0824600200E4640
:105F200001219046CDE90900CDE90700CDE9050042
:105F3000EFF31089012080F31088FCF769FE80B12F
:105F400096B130880F280FD85D4842F29A278045D5
:105F50009CBF70880F2809D80120FFF765FD074610
:105F600004E04DF28167A4E042F29A27DFF824B3FF
:105F700049F24D1087EA0001DBF82820114308BFE1
:105F80004BF2E737874240F0928008A805A9FFF757
:105F9000E5FBDDE909210020CBE92600BAF1000F7D
:105FA000CBE928213188ABF890104649D1E9003778
:105FB000D1E90254096904917188ABF892107168B3
:105FC000CBF89410CDE90037CDE902543E49096879
:105FD00052D0DAF8040000284DD0CBF89800D04316
:105FE0003A4CDAF80430934288BF5042384AC71816
:105FF000DBF8B400A0423CBF40F61D22C0F2010213
:10600000002F38D04FF0000036D4BBF88E40002C63
:1060100008BF4CF2503212EB080240F10004BA1AE9
:1060200070EB040228D3CBF89830DBF8C06001F0A5
:1060300001044FEAD8010023DAF8000032466FF37A
:106040005F20CBF89C004FEA4870FCF7A0F80546AB
:106050002048002C32464FF0000304BF40F2894034
:10606000CFF6FF70C1194807C908FCF790F80699E8
:106070000844401B00E00020CBF8B0006846FDF764
:106080000EFC074649F24D10874210D112480168B4
:1060900042688068CBF82000CBF81C20CBF81810A1
:1060A0000421DBF8180061F30700CBF81800FCF7B7
:1060B000CEFC89F3108838460BB0BDE8F08F00BFE6
:1060C000A026B80368444300D4B0014001F049025F
:1060D000590001009241FFFFEC4D4300F8B5EFF38A
:1060E0001085012080F3108801210026FCF790FD27
:1060F00068B1684F42F6A011386988420AD1B86980
:1061000049F24D14C0B2012807D1002619E04DF222
:10611000816418E00026104C13E0FFF7ABFCA042AE
:106120000DD1B869C0B2042808BF23F079FCB86962
:10613000012649F24D1466F30700B86101E000261C
:106140000446FCF784FC85F310881EB10348006800
:1061500000B180472046F8BD41FF0300D83A012036
:10616000B0B598B00446FCF7FBFA60B3072C2DD805
:10617000FCF7D8FD49F24D114BF2E735884227D1A3
:106180004448816A21B390F8AD2090F88E106D4696
:106190008DF85A2090F8BD208DF85C1000F1240194
:1061A0008DF85B20B0F88C20ADF85820D0F8B420E2
:1061B000284615925422FCF720F920462946FDF77F
:1061C0007DFB054604E04DF2816503E04BF2E735C7
:1061D000FCF73DFC284618B0B0BD00BFFEF73CBC44
:1061E000FEF716BEB0B5EFF31085012080F31088DE
:1061F0000A21FCF70DFDC8B10520FFF715FCFCF7DF
:1062000038FD18D123F00CFC0446FFF7A3F984B144
:1062100020480122816962F30F318161816989B26D
:1062200041EA044144F23454816104E04DF2816456
:1062300003E049F24D14FCF70AFC85F31088204670
:10624000B0BD00BFB0B50446FCF78AFA48B1FCF710
:1062500076FCFCF727FB04BF04480460FCF7F7FB5F
:1062600001E04DF281652846B0BD00BFFC5F0348E8
:1062700010B5084AD0E901100024D2F8C020A2FBD2
:106280000113E0FB0234480FE10040EAC30041EA99
:10629000537110BD50BC002080B58AB009900891A0
:1062A00045F20001C0F24B01079103A8E022FEF77E
:1062B000B5F8029002984BF2E731884206D1FFE729
:1062C0004FF64170C0F20300019002E00298019085
:1062D000FFE701980999086003A845F60061C0F23C
:1062E0004B012022FEF79AF8029002984BF2E73118
:1062F000884206D1FFE74FF64170C0F203000090DC
:1063000002E002980090FFE70098089908600AB040
:1063100080BDDEDED0B502AFADF50C7D6C466FF30F
:106320000304A5460CA804904FF40071FCF7C9F8CB
:1063300004980B9049F24D1005900A9045F2000028
:10634000C0F24B00079009A808A9FFF7A5FF05991F
:10635000089888420AD1FFE70CA845F60061C0F210
:106360004B014FF40072FCF703F805E04FF6417063
:10637000C0F203000A90FFE70A9849F24D118842E3
:1063800027D1FFE743F68470C2F201000CA9039104
:106390004FF40072FCF731F803984FF6FF71069145
:1063A000811C02204FF4FF7206AB14F045FA0A90EC
:1063B0000A9849F24D11884206D1FFE70B980088F0
:1063C0000699884204D0FFE742F29A200A90FFE73C
:1063D000FFE70A9849F24D11884227D1FFE70B9851
:1063E000408805280ADBFFE70B98408805280BD179
:1063F000FFE70B988088002806DCFFE74FF68260F5
:10640000C0F203000A9010E00B984088052807D1DD
:10641000FFE70B988088012802D1FFE700BF03E067
:106420004BF2E7300A90FFE7FFE7FFE70A98A7F192
:106430000804A546D0BDDEDED0B502AFADF5825D65
:106440006C466FF30304A5460DF1140E0EF5815151
:10645000059188600CA804904FF48051FCF731F846
:10646000049800F560600B900DF1180E0EF5815048
:106470000DF1140E0EF58151FFF70EFF059845F250
:106480000001C0F24B010A91406849F24D11884267
:106490000AD1FFE70CA845F20001C0F24B014FF40E
:1064A0006062FBF765FFFFE705990B980830896884
:1064B0004FF484720392FBF7A0FF03980B9A052117
:1064C00051800B9A012191800B99C8804FF6FF7083
:1064D00009900B98811C02204FF4FF7209AB14F055
:1064E000ABF90890089849F24D11884234D1FFE782
:1064F00009980B99088045F20000C0F24B00012179
:10650000FDF7A3FF49F24D11884206D0FFE74FF691
:106510004170C0F203000890FFE7089849F24D115E
:10652000884218D1FFE70CA806904FF480500790DE
:1065300045F20000C0F24B0006A9FDF794FF49F2B6
:106540004D11884206D0FFE74FF64170C0F20300BC
:106550000890FFE7FFE7FFE7089849F24D118842EE
:106560000AD1FFE70B9943F68470C2F201004FF4A1
:106570000072FBF742FFFFE7059840684FF6417154
:10658000C0F20301884209D0FFE7059800684FF682
:106590004171C0F20301884206D1FFE74FF6417016
:1065A000C0F203000890FFE70898A7F10804A54689
:1065B000D0BDDEDE80B584B08DF80F00FF200290E4
:1065C0009DF80F0000F006FA002859D0FFE749F2C5
:1065D0004D1001909DF80F0004281AD1FFE748F2F2
:1065E0000430C2F200000168002000F00FFB0190AF
:1065F000019849F24D1188420AD1FFE748F2043070
:10660000C2F200000168022000F000FB0190FFE7E9
:106610000AE09DF80F0048F20431C2F20001096857
:1066200000F0F4FA0190FFE7019849F24D11884219
:106630000DD1FFE748F20430C2F2000002680121E8
:1066400082F802110068FFF7F7FE0190FFE701985A
:1066500049F24D11884203D1FFE7002002900EE07D
:1066600001984FF64171C0F20301884203D1FFE760
:106670000320029002E001200290FFE7FFE7FFE71E
:10668000029804B080BDDEDE82B0019000208DF85B
:1066900003000198B0F8F40048B9FFE701994FF4FE
:1066A000FA60A1F8F40001208DF80300FFE70198DB
:1066B000B0F8F60048B9FFE7019942F21070A1F86E
:1066C000F60001208DF80300FFE7019890F8CC0058
:1066D000400740B9FFE701990720C1F8CC0001202D
:1066E0008DF80300FFE70198B0F8D400800448B9A2
:1066F000FFE701994FF40960C1F8D40001208DF83B
:106700000300FFE7019890F8030140B9FFE7019902
:10671000122081F8030101208DF80300FFE79DF8A6
:10672000030000F0010002B07047DEDE82B08DF899
:10673000030048F20430C2F2000000689DF8031024
:1067400000EB8100D0F884000190019802B07047FE
:1067500081B08DF803008DF8021048F20430C2F2C7
:10676000000000689DF8031000EB81009DF8021006
:1067700000EB4100B0F8E40001B0704781B08DF843
:10678000030000208DF802009DF803000A282CD198
:10679000FFE748F20430C2F20000006890F8F80009
:1067A00058B9FFE748F20430C2F20000006890F8E0
:1067B000F90040428DF8020016E048F20430C2F2BF
:1067C0000000006890F8F80001280AD1FFE748F2BD
:1067D0000430C2F20000006890F8F9008DF8020061
:1067E00001E000BFFFE7FFE733E09DF803001B284F
:1067F0002CD1FFE748F20430C2F20000006890F8A4
:10680000FA0058B9FFE748F20430C2F2000000680D
:1068100090F8FB0040428DF8020016E048F2043088
:10682000C2F20000006890F8FA0001280AD1FFE7E0
:1068300048F20430C2F20000006890F8FB008DF8C6
:10684000020001E000BFFFE7FFE701E000BFFFE754
:10685000FFE79DF9020001B07047DEDE81B08DF8E0
:10686000030048F20430C2F2000000689DF80310F3
:1068700000EB4100B0F9DC0001B0704748F2043091
:10688000C2F20000006890F80001704780B584B043
:106890008DF80F0002914BF2E73001909DF80F0048
:1068A000032835DCFFE79DF80F0026F063FF8DF825
:1068B000030048F20430C2F2000000689DF80F1097
:1068C000C1EBC10100EB410090F8A0009DF803105E
:1068D00088421CD1FFE7029948F20430C2F200005E
:1068E00000689DF80F20C2EBC20200EB4203B3F830
:1068F000A0008881D3F89400D3F89820D3F89C3076
:106900008B604A60086049F24D100190FFE7FFE795
:10691000019804B080BDDEDE48F20430C2F200000F
:10692000006890F80301704748F20430C2F200009A
:106930000068B0F8F400704780B584B08DF80F009F
:106940008DF80E10002002909DF80E00002818BF50
:1069500001208DF807009DF80F000F280FD8FFE7E2
:1069600048F20430C2F2000000689DF80F1000EBFE
:10697000C1009DF8071050F8210002900CE09DF82E
:106980000F00F02806D1FFE79DF8070027F060FD13
:10699000029000E0FFE7FFE7029840B9FFE748F206
:1069A0000430C2F20000006800680290FFE702981D
:1069B00004B080BD81B08DF8030048F20430C2F20B
:1069C000000000689DF80310084490F9FC0001B035
:1069D0007047DEDE83B08DF80B0000208DF80A00D2
:1069E0009DF80B00042813D1FFE748F20430C2F2EF
:1069F0000000006890F80201C00720B9FFE70120FD
:106A00008DF80A0003E000208DF80A00FFE725E07A
:106A100000200190FFE701980F281ED8FFE79DF89E
:106A20000B00002818BF01208DF8030048F2043045
:106A3000C2F200000068019900EBC1009DF803104C
:106A400050F8210020B9FFE701208DF80A0004E08A
:106A5000FFE7019801300190DDE7FFE79DF80A00AC
:106A600000F0010003B0704780B584B0FF200390B0
:106A7000FFF750FC029000208DF80700029849F2C1
:106A80004D1188420BD0FFE748F20430C2F20000FB
:106A9000006800F04DF801208DF8070009E048F289
:106AA0000430C2F200000068FFF7EEFD8DF8070029
:106AB000FFE79DF80700C007B0B3FFE7029842F276
:106AC0009A21884203D1FFE70220039018E0029840
:106AD0004BF2E731884203D1FFE7012003900EE03B
:106AE00002984FF64171C0F20301884203D0FFE7DC
:106AF0000320039002E000200390FFE7FFE7FFE799
:106B000048F20430C2F200000068FFF795FC0290E2
:106B100002984FF64171C0F20301884203D1FFE7AA
:106B200003200390FFE7FFE7039804B080BDDEDE9B
:106B300080B582B0019001984FF48471FBF7C1FCDD
:106B40000199D1F8800020F00100C1F8800001997E
:106B5000142081F800010199012081F801010199B7
:106B60004FF40960C1F8D40001990020C1F8D800A1
:106B7000019A0721C2F8CC10019A4FF4FA61A2F8E9
:106B8000F410019A42F21071A2F8F610019A122143
:106B900082F80311019981F8F800019A092182F81D
:106BA000F910019981F8FA000199032081F8FB009E
:106BB0000199322081F8060102B080BD80B584B011
:106BC0000390FF2002900398FFF75EFD0398FFF704
:106BD00033FC0190019849F24D11884203D1FFE73F
:106BE000002002900EE001984FF64171C0F20301BF
:106BF000884203D1FFE70320029002E001200290C7
:106C0000FFE7FFE7029804B080BDDEDE80B58AB002
:106C10008DF8270008914BF2E73007909DF8270088
:106C2000002818BF01208DF81B0000200590FFE709
:106C300005980F282DD8FFE7002204929DF8271011
:106C40009DF814006B460DF1100CC3F808C04FF00E
:106C5000010CC3F804C018600323104625F0AEFFF2
:106C60000390039849F24D11884204D1FFE749F29D
:106C70004D100790FFE704980899059A01EBC201AF
:106C80009DF81B2041F82200FFE705980130059090
:106C9000CEE725F05FFF07980AB080BD10B5044627
:106CA00090F8290280071FD5D4F818026168814244
:106CB00017D1B4F80302A18B814207D04FF6FF71C0
:106CC00088420ED194F8290001280AD1607A04285C
:106CD0001AD1D4F81411D4F8F801884207D25B20F5
:106CE00000E0192084F828024BF2E73010BD94F838
:106CF000741049B121460EF016FF40B1012084F80E
:106D0000BB024DF2816004E049F24D1010BD49F222
:106D10004D10D4F8F811C4F8181110BDF8B5144688
:106D200042F29A2291B38CB3657B0028C5F38102AD
:106D300018BFAA092AB1022A0AD0032A1ED10822A2
:106D400000E0022294F8355005F0FE0584F8355035
:106D500026685542AE4217D8B5186F1E9F4213D809
:106D600004F10F030028314418BF04F1170318463B
:106D7000FBF7FEFA49F24D12256007E094F8350062
:106D800000F0FE0084F835004BF2E7321046F8BD03
:106D9000F0B543F6FF54A2F8334092F8324045680C
:106DA000A542C0F0958092F83150022D35D0012DCA
:106DB00040F085800D2C40F08480117BC90600F1E5
:106DC0008080006801781960447841EA04211960E4
:106DD000847841EA04411960C47841EA0461196089
:106DE0000179D960447941EA0421D960847941EA82
:106DF0000441D960C47941EA0461D960017A998279
:106E0000447A41EA04219982817A1976C17AD98239
:106E1000007B41EA0020D88270E0122C53D905682B
:106E2000123C2E781E606F7846EA07261E60AF7807
:106E300046EA07461E60EF7846EA07661E602E792E
:106E40009E826F7946EA07269E82AE791E76EE799B
:106E5000DE822F7A46EA0726DE826E7ADE60AF7A1D
:106E600046EA0726DE60EF7A46EA0746DE602F7BB9
:106E700046EA0766DE606E7B1E61AF7B46EA072648
:106E80001E61EF7B46EA07461E612F7C46EA0766D5
:106E90001E6195F811C0CCEBCC0683F819C0A64250
:106EA00013D1022400269C720024664526D207686E
:106EB0002744BD7C8D420ED007340136F5E74820CB
:106EC00004E0492002E04A2000E04B2082F8340030
:106ED0004BF2E730F0BD1972F87C5860397D40EA1A
:106EE00001205860797D40EA01405860B97D40EA50
:106EF00001605860F87D5872387E98720120A2F8BF
:106F0000330049F24D10F0BD2DE9F0474B680446BF
:106F1000022B07D90D68298808466FF3DF20861CED
:106F2000B34206D2502084F828024BF2E730BDE885
:106F3000F08701F4F043B3F5805F04D10BB2002B6E
:106F400003D45320EFE75420EDE740F2FC731942DD
:106F5000E8D029796B8843EA0141AB4B994217D1BC
:106F6000697901F00F01052914D004292DD00329D6
:106F700067D10628D6D9617A042964D1A979072373
:106F800003EB81038342CDD8142973D35820CAE779
:106F90005520C8E70428C5D9617A072953D1A979B2
:106FA0000122CB0862F35F03042202EA8102561D2C
:106FB00011F0020218BF1E444F0748BF1E4486420C
:106FC000B0D8C80768D1002079E0617A06293AD1A3
:106FD00094F89810022938D10828A3D9A9798B08E8
:106FE00001F0020603EB4303093606EB4303834239
:106FF0003ED8242980F0988001F001001076A9790C
:10700000880759BFD5F807C00B23D5F809C00D2351
:1070100005EB030E0EF102060027B7EB910F80F08F
:10702000858036F8020CA38B834207D1DEF802007C
:10703000316860441061401A5060A9790636013702
:10704000EBE71E206FE756206DE705287FF66AAF55
:10705000EB79A97903F0010301F0020646EA830304
:107060008E0806EB460603EB46030633834259D9E6
:107070005A2058E7287A0029507776D005F109037D
:10708000A58B0020814279D053F82060C6F34F26AB
:10709000B54270D00130F5E7D5F807005B495C4A8E
:1070A0000023A0FB0101FBF772F894F8F21104EB46
:1070B0004101A1F81A010420A97901F002025AB194
:1070C00094F8F2112A1840F00200B2F8072004EBFD
:1070D000C101A1F84421A9794A070AD594F8F2110F
:1070E0002A180230B2F8072004EBC101A1F84821A8
:1070F000A9790A0739D58A0709D594F8F2112A180F
:107100000130D27904EBC10181F84621A979490700
:107110002BD594F8F2112844C07904EBC10181F811
:107120004A0122E0242903D35920FCE610691BE020
:1071300001F001001076A879E97900F0020361F30B
:107140008203E91800230831C6B2B3EB960F0AD2C6
:107150000E88A78BB74202BFD1F802005060A87911
:1071600006310133F0E7506818B149F24D10BDE81F
:10717000F0876120D7E6C0B2814201D15720D2E624
:1071800024484FF0000949F24D1840F2011C4FF01D
:107190005C0E824649F24D1082F81C9000293FF4A3
:1071A000C6AE1E68554606EA0A07B7F1007F02BF61
:1071B00009F1010982F81C901E68C6F34F27A58BC0
:1071C000BD421DD1C6F34367052F04D0012F04BF74
:1071D0007508957601E07508D5761E68F50702D02A
:1071E00094F8355145B140450AD1B00048BFA4F8E4
:1071F00005C349F24D1003E084F828E24BF2E73072
:1072000001390433CAE700BFFF185A001594030080
:1072100020A107000100001E2DE9FC4104460320C7
:1072200084F8290240F2FF10A4F827020020C4F8D5
:10723000F40148680C2843D30D46096802230A78F4
:107240004978C4F8F43142EA0123A4F8003202F08C
:107250000703012B2DD101F03003202B2BD19306F6
:107260002BD4471E04F5FA78C8074FF0020008D166
:1072700084F829022868807884F802020320C4F880
:10728000F401520620D411F0CC0279D001F00C03A5
:107290003F2900D80BBBC02901D30C2B1DD0882A55
:1072A00005D0C029C0F0BD80082B40F0BA8001266F
:1072B00014E00B2002E00C2000E00D2084F82802EE
:1072C0004BF2E730BDE8FC8111F0CC0205D0C029BB
:1072D0007AD301F00C01082976D10026022184F826
:1072E00029122968095A0230A4F8FE11C4F8F401E1
:1072F0000320296842463B4684F828020020FFF715
:107300000DFDFBF7B6FA40F0DF8076B194F8290264
:1073100000F0FE0084F82902D4F8F4012968095A23
:107320000230A4F8FC11C4F8F40194F801024028DA
:1073300012D394F8290242463B4600F0FE0084F83E
:107340002902042084F8280229680120FFF7E6FCBE
:10735000FBF78FFA40F0B88094F80002000711D4D0
:1073600094F8290220F0010384F8293294F80102EC
:10737000800730D40F2084F8280203F0FE008AE052
:107380000026B5E7D8F80010B94280F080801420BC
:1073900084F82802286840B3425C01F1010C93068E
:1073A00084F8132294F8293223D403F0FD060B1D30
:1073B000BB4284F8296239D915200021334684F86C
:1073C00028024BF2E7305DE042F0040100268C29F0
:1073D0003FF484AF8CE7D8F8000010F1030F9CBF96
:1073E000811CB94208D9202068E742F29A20BDE802
:1073F000FC8103F0FE061FE01E2284F828222A6882
:10740000135C02445278C4F8F41143EA0221A4F850
:107410001F1203F07F0108440130B8423ED91F20FB
:107420004CE701268C2A3FF459AF61E750F80C3045
:1074300001F1050CC4F81432C2F3C101022908D0CD
:10744000B1B906F0FE0384F8293249F24D1001214A
:1074500018E006F0FD031CF1050F84F829329CBFEB
:107460000CF1040EBE4542D9172084F8280206E02C
:10747000162006F0FC0384F8280284F829324BF227
:10748000E7300021520604D4F1B1BC451ED91520C5
:1074900014E703F0FC0084F8290211E7207AC0B158
:1074A000236F286841463A4600F04AF8FBF7E1F9B5
:1074B0000AD10020A4F8270294F8290240F0040021
:1074C00084F8290249F24D10BDE8FC81C8F800C0DB
:1074D0004CE794F813024007E2D094F874000028B7
:1074E000DED0B4F8A80280060FD43520E6E650F8C6
:1074F0000C100CF1050CC4F8181210F80E00AA2894
:1075000084F81C02A1D01920B3E7D5E900120B4E74
:107510002068736B9847FBF7ACF9D5D10120326A2C
:10752000694684F804031020019028680A3000900E
:10753000204690474DF28160BDE8FC81C0BB002031
:10754000F0B5B1F92B40002C2DD4A4B214F4FF4FA8
:107550002BD104F07F06032E27D30D684719445B17
:10756000BF7844EA07445C4FBB42C1F82D4020D0AD
:107570009C421ED191F83530EF1C052E0F6003F0B0
:10758000FD0481F835403BD1C65D2F1D05350F60E8
:1075900081F83160C65D0D6081F832603E449642EC
:1075A00032D9462034E0242000E01F2081F8340046
:1075B00034E091F83530BC4224D1EE1C03F0FE04D7
:1075C0000E60961B81F83540112E20D30B35002319
:1075D00049F24D164FF0340C072B23D8EF1F0F60E4
:1075E000471917F8087C082F07D004F0FD044BF268
:1075F000E73681F834C081F8354001350133EBE7D7
:10760000292005E01E2003E049F24D162AE0332030
:1076100081F8340003F0FC0081F835004BF2E733C9
:107620001846F0BD43192F1F53F808CC0F60C1F85E
:1076300024C013F804CCC1F804C013F8037C4CEA4E
:10764000072CC1F804C013F8027C4CEA07474F60CE
:1076500013F8013C0D6047EA03634B604BF2E733DC
:107660009E42DDD06F1C18BF974216D8AB1C405B02
:107670000B6049F24D13A1F82B009E423346CFD147
:1076800014F0010318BFB0F57E5F0ED191F83250AF
:107690003D44954203D92B2088E7202086E753B943
:1076A000B0F57C5F0CD0222080E7232081F83400E5
:1076B00004F0FE00B0E791F831000138022809D249
:1076C000002049F24D13A1F8330044F0040081F882
:1076D0003500A5E72A2069E7FF185A00BCB5054622
:1076E00000200C460190D1E90001FAF7C8FE01A97B
:1076F0002846224600F0DDF82168012201980A544C
:107700000D22216801444A704FF47E5221680144E1
:107710004A8021686A6801444A60D5F814212168CA
:10772000014401328A602168B5F82C2101448A8124
:10773000216895F8ED2101448A732168B5F82E215E
:1077400001441130A1F80F20A060BCBDF8B50C4673
:107750000546D1E9000100260096FAF790FE694639
:107760002846224600F0A5F82068009902224254DB
:107770004FF47E52009800F1010C2068CDF800C053
:1077800000F80C6000982168013000900A520098BF
:1077900021686A68023000900A500098B5F82C11F0
:1077A0002268043000901152009895F8ED1122687B
:1077B0000230009011540098B5F82E112268013063
:1077C0000090115295F89310D5F8142100980230CA
:1077D000114422680090023111500098D5F80C1124
:1077E00022680430009011500022009800F1040E2D
:1077F0002068CDF800E000F80E600098471C95F86E
:10780000B8020097F30743D195F89360C1B2B14233
:107810003ED2D3B2092B33D82168C85595F8B87237
:1078200000980130E919009091F8361119B1FF263E
:107830004FF0FF3707E005F1D401CE1901EB8701C6
:1078400096F86D600F6921680F5000982168043028
:1078500000900E5495F8B812009801302944009019
:1078600091F83661032E03D3E12E14BF03260126BF
:10787000216801320E540098471C95F8B802009711
:107880000130002685F8B802092B88BF0126B9E728
:10789000206800F80E20C2EBC2002168123001F807
:1078A0000C001BB1206842F6593101800098A0609D
:1078B000F8BDF8B5064615460C460868116842F64C
:1078C00049320A522068296802302060328C0A52FC
:1078D0002068023020603046D6F88C720EF0E4F852
:1078E000317D49064FF0160158BF10212A682368E0
:1078F000D154D1180522C1F80500AA20C1F80170A1
:107900004872206829680A3020600A522068296875
:1079100002302060326F0A540844110A4170110C81
:107920008170206803302060F8BDDEDEB0B51446FB
:10793000126842F64933138090F89020012A07D14B
:1079400090F82920012A03D12268FF23937003E0D5
:107950002268838993701B0AD370202290F91E003D
:10796000002848BF2622206802715A20102225686C
:1079700068720648C5F8050005F10A00FAF7F8FC38
:107980004FF47C5068831C20A060B0BD1300FF182A
:10799000437A062B08BF00F0DFB8042B18BF00F0B5
:1079A000B3B900F001B8DEDE2DE9F04F97B0924692
:1079B0000546FFF7BBFF0DF1080B50210BF104004A
:1079C000FAF77FFD95F8051395F893806048AF8B23
:1079D00002904046B1B195F82A1099B10BF1070217
:1079E00005F10C034146002975D0166833F8025B97
:1079F000013906F05E4646EA452505F1005542F894
:107A0000045BF0E7009095F8970095F807130BF1E9
:107A10000B0305F10C024FEA472E00F002098DF826
:107A20000E10019049EA472100270131CDF80F10CF
:107A30004FEA4801B94211D053F8176007F1040C1E
:107A4000D45B0CF4FF7006F04046304440EA44201A
:107A500000F1007043F817000237EBE795F8983013
:107A60003C4D009F022B15D108F101070220F9B20D
:107A7000B9F1000F08BF01200BEB81014044C0B2F7
:107A8000D1F807404EEA400004F040442044284327
:107A9000C1F80700012B434605F1806508BF013B93
:107AA0000320B9F1000F08BF0220791C1844CCB2A2
:107AB000C0B20BEB84044EEA4000D4F8076006F035
:107AC000404630442843C4F807000198C00724D139
:107AD000481C5FFA80F88DF80C0049F20700DAF8CC
