:02000004004BAF
:108000000000000000000000000000000000000070
:108010000000000000000000000000000000000060
:108020000000000000000000000000000000000050
:108030000000000000000000000000000000000040
:1080400000000000B84F0000CD8F000001000000CC
:1080500000000000000000000BF0000000D44B0006
:1080600000D001200000000000000000000000001F
:108070000000000000000000000000000000000000
:1080800000F002F800F052F814A696E8000CB24492
:10809000B344DA4501D100F049F8BAE80F000FA661
:1080A00096E83000A5EB040504EB0607AAEB0704ED
:1080B000A7F101074FEA15154FEA3414A4F10104A2
:1080C000AC4201D300F032F813F0010F18BFFB1AD5
:1080D00043F0010300F001F8DBE71847C05400004B
:1080E000E0540000103A24BF78C878C1FAD852078B
:1080F00024BF30C830C144BF04680C607047DEDE66
:108100007047DEDE0023002400250026103A28BF39
:1081100078C1FBD8520728BF30C148BF0B607047F9
:108120001FB505F09DF81FBD10B510BDDFF80CD0D0
:10813000FFF7F6FF00F008FC00F05FF900F0012007
:1081400003B4FFF7F1FF03BC00F0F8FB704753EAFC
:10815000020C00F069802DE9F04B4FF00006002B77
:108160001FBFB3FA83F503FA05F424FA05F65E405F
:1081700012BF1643B2FA82F502FA05F4C5F12005E2
:108180001EBF22FA05FC44EA0C04203556EA044CD2
:108190004FEA144418BF641C4FF000084FF0000968
:1081A000904271EB030C39D3002919BFB1FA81F762
:1081B00001FA07F6B0FA80F700FA07F6C7F12007D0
:1081C0001EBF20FA07FC46EA0C062037B6FBF4FC7B
:1081D000A7EB0507103F07F01F0BCBF120062CFA89
:1081E00006F60CFA0BFB44BFB3460026202FA4BFB3
:1081F0005E464FF0000B5BEA060C08BF4FF0010B28
:1082000019EB0B0948EB0608ABFB027C06FB02CC22
:108210000BFB03CCC01B71EB0C01C1E70B46024604
:1082200041464846BDE8F08B13B5084318BF4FF0F0
:10823000FF300146AFF30080BDE81C407047B2F14B
:1082400020030AD5C2F1200301FA02F120FA03F358
:1082500041EA030100FA02F0704700FA03F14FF01F
:108260000000704740EA010310B59B070FD1042AB4
:108270000DD310C808C9121F9C42F8D020BA19BAF1
:10828000884201D9012010BD4FF0FF3010BD1AB156
:10829000D30703D0521C07E0002010BD10F8013BAB
:1082A00011F8014B1B1B07D110F8013B11F8014BD2
:1082B0001B1B01D1921EF1D1184610BD032A40F2BA
:1082C000308010F0030C00F0158011F8013BBCF178
:1082D000020F624498BF11F801CB00F8013B38BF90
:1082E00011F8013BA2F1040298BF00F801CB38BF9E
:1082F00000F8013B11F0030300F02580083AC0F0BC
:10830000088051F8043B083A51F804CBA0E8081063
:10831000F5E7121D5CBF51F8043B40F8043BAFF396
:108320000080D20724BF11F8013B11F801CB48BFF0
:1083300011F8012B24BF00F8013B00F801CB48BF26
:1083400000F8012B704710B5203AC0F00B80B1E85F
:108350001850A0E81850B1E81850A0E81850203A7A
:10836000BFF4F5AF5FEA027C24BFB1E81850A0E883
:10837000185044BF18C918C0BDE810405FEA827C9D
:1083800024BF51F8043B40F8043B08BF7047D207B4
:1083900028BF31F8023B48BF11F8012B28BF20F855
:1083A000023B48BF00F8012B70474FF0000200B5B8
:1083B000134694469646203922BFA0E80C50A0E808
:1083C0000C50B1F12001BFF4F7AF090728BFA0E8B6
:1083D0000C5048BF0CC05DF804EB890028BF40F882
:1083E000042B08BF704748BF20F8022B11F0804FC4
:1083F00018BF00F8012B7047704710B50446AFF363
:1084000000802046BDE81040FFF79ABEFFE720BF7E
:10841000FDE7DEDED0B502AF6C466FF30204A54681
:1084200002F099F8A7F10804A546D0BDD0B502AF77
:108430006C466FF30204A54602F098F8A7F1080411
:10844000A546D0BDD0B502AF6C466FF30204A54679
:1084500002F097F8A7F10804A546D0BDD0B502AF49
:108460006C466FF30204A54602F096F8A7F10804E3
:10847000A546D0BDD0B502AF6C466FF30204A54649
:1084800003F08DFBA7F10804A546D0BDD0B502AF1F
:108490006C466FF30204A54602F0BEF9A7F108048A
:1084A000A546D0BDD0B502AF6C466FF30204A54619
:1084B00002F0EBF8A7F10804A546D0BDD0B502AF95
:1084C0006C466FF30204A54601F008FAA7F1080410
:1084D000A546D0BDD0B502AF6C466FF30204A546E9
:1084E00001F0FEF9A7F10804A546D0BDD0B502AF52
:1084F0006C466FF30204A54601F0F4F9A7F10804F5
:10850000A546D0BDD0B502AF6C466FF30204A546B8
:1085100001F0EAF9A7F10804A546D0BDD0B502AF35
:108520006C466FF30204A54601F0E0F9A7F10804D8
:10853000A546D0BDD0B502AF6C466FF30204A54688
:1085400001F0D6F9A7F10804A546D0BDD0B502AF19
:108550006C466FF30204A54600F0F6FDA7F108048F
:10856000A546D0BDD0B502AF6C466FF30204A54658
:1085700000F000FEA7F10804A546D0BD88B0079022
:1085800006910592079800F0070004900498C0F146
:108590000700052803D3FFE70420019004E00498B6
:1085A000C0F107000190FFE70198039004980430A0
:1085B000062803D8FFE70020009003E00498033862
:1085C0000090FFE70098029006980399012202FAB2
:1085D00001F101390840029B984005999A40013AFF
:1085E0001140084308B070470022002300F065BA2C
:1085F00000F108064FF4603766CE07EAC23261F335
:108600000E3205F0070142EA814106F0070241EA15
:108610004251704704460120002100252246FFF701
:108620000EBEC4F2000108607047D8F8000020F0C8
:108630000200C8F8000070474FF64170C0F2030016
:10864000704749F24D118842704748F21C24C4F229
:108650000100C2F2000401687047D0F80E50D0F853
:108660000A60B54270470290332001220023019036
:1086700000200390704748F2140700240126C4F23A
:108680000405C2F200077047A0684FF4FF5140F2A2
:108690000C1201EA4011C4F204028B5843F08063CB
:1086A0008B5004F1280100F0ABBDC4F200031C683C
:1086B00024EA000008431860704748F29400C2F2B0
:1086C00000004169E26B02EB021211447047D8F8D6
:1086D000000040F00200C8F8000070470090002041
:1086E00003F0CDB801200021FFF7A9BD49F24D11DB
:1086F00088427047044600F088BE05EB82010022E4
:10870000C1F81822B0BDC4F20100016801604FF643
:10871000E861CFF6FF714250704705206063012089
:1087200000F062BE51F8043CD1E900750C31013A09
:10873000184438442844704744F22402C4F2010229
:1087400053681843506010680843106049F24D1098
:10875000B0BDC4F20000016080BD48F29400C2F2D6
:1087600000007047D8F8401060F31241C8F840107C
:1087700070470090012003F082B8DBF804004FF648
:10878000EC6170474AF27430C2F2000000EB8400E2
:108790007047C4F20001096821FA00F000F00100FE
:1087A00070474169E26B02EB0212114451F80C1C54
:1087B00070474AF29070C2F20000704740000323F5
:1087C000814003FA00F07047012001F0C5BF4EF26E
:1087D0001802C4F200021368704748F2C400C2F2E3
:1087E0000000007870474AF274350446007AC2F2FD
:1087F000000505EB8001D1F81822002A70474EF2DF
:108800001402C4F200021368704700200121022301
:1088100003F035B8C4F20100016841F40051016071
:1088200044F6F030C4F201000168704702FA00F02B
:108830004EF20C02C4F2000213687047022300904B
:10884000002003F01CB848F2C400C2F200007047D8
:1088500044F280050C46C4F20105D5F8806B00F0A7
:1088600053BF0B2001F00DBF80B54FF20000C2F2E4
:108870000100854600F002F8FFF702FC80B54EF6D5
:108880008851CEF200014FF47000086000F002F849
:1088900080BDDEDE7047DEDE4EF60C50CEF200000C
:1088A0000068C0F30220704782B0019000910198E7
:1088B000002809D4FFE70098000101994EF2004218
:1088C000CEF2000288540AE000980001019901F0FC
:1088D0000F014EF61452CEF200028854FFE702B0A8
:1088E0007047DEDE83B00290029800F0070000902F
:1088F0004EF60C51CEF200010868019001984FF637
:10890000FF02104001900198009A40EA02200022E4
:10891000C0F2FA52104301900198086003B070470A
:10892000FFE74EF6F050CEF200000068C00710B925
:10893000FFE7DABEFFE720BFF3E7DEDE81B000909D
:10894000FFE720BFFDE7DEDE84B000200290039049
:1089500004F080FC03F06AFE02F0E6F801F027FE66
:1089600004F000F802210191084601F046FF019849
:1089700001F032FF0199084601F0FFFE029801F074
:10898000B8FE02F083F8FFE703F0D2FEFCE72DE922
:10899000F041144688460646B3F1CF3F0ED1A019E8
:1089A00008F1040122465AB151F8043CD1E900759E
:1089B0000C31013A184438442844F4E7002701E018
:1089C00040F0010700F05CF83046414622463B4645
:1089D0004CF7D6F3044600F047F82046BDE8F08196
:1089E000F8B5242101220023CDE902013C200190A9
:1089F00001A94FF40D70FFF7CAFF04B080BDF8B5B0
:108A0000CDE90201332001220023019001A948F29F
:108A1000013000F04AFC04B080BDF8B5CDE9020198
:108A2000332001220023019001A948F6031000F031
:108A30003CFC04B080BDA1B1FEB5019033203922C9
:108A400000230090D1E9000103920222CDE9040144
:108A500000206946029040F6044000F026FC06B073
:108A600080BD42F29A2070470B4850E8001F002951
:108A700018BF013940E80012002AF6D1704700BF44
:108A8000054850E8001F013128BF4FF0FF3140E892
:108A90000012002AF5D1704778820020F8B50290C4
:108AA00033200122002301900020039001A948F205
:108AB000021002F09FF804B080BD2DE9F041144689
:108AC00088460646B3F1CF3F07D1A01908F104014B
:108AD000224622B1FFF726FEFBE7002701E040F027
:108AE0000107FFF7CDFF3046414622463B464CF793
:108AF00087F20446FFF7B8FF2046BDE8F0812DE974
:108B0000F041144688460646B3F1CF3F07D1A0197D
:108B100008F10401224622B1FFF704FEFBE700271B
:108B200001E040F00107FFF7ABFF30464146224627
:108B30003B464CF7A5F20446FFF796FF2046BDE8FA
:108B4000F081F8B501A944F2DB30FFF74DFD04B028
:108B500080BDF8B501A94FF48D60FFF745FD04B065
:108B600080BD1FB50421044603F0F6FC98B14DF218
:108B70007C200023C0F24B00D0E9001280680390F3
:108B800048F28250CDE9011201A90122FFF795FFB9
:108B90000299216001E042F29A2004B010BDF8B5BC
:108BA000202101220023CDE90201C920019001A961
:108BB0004CF28D00FFF7A3FF04B080BDF8B501A90A
:108BC00040F29C60FFF710FD04B080BDF8B5FFF7E0
:108BD0004AFD01A944F20F60FFF76FFF04B080BDAA
:108BE000F8B501A94FF40D70FFF7FEFC04B080BD8D
:108BF00070B586B00E46054610460821144603F0AF
:108C0000ABFC88B1392002220023CDE90156039044
:108C100033200090D4E90001CDE90401694644F213
:108C2000A710FFF74AFF01E042F29A2006B070BD9C
:108C30001FB50821044603F08FFC68B139200122DA
:108C400000230190D4E90001CDE9020101A948F215
:108C50001A10FFF732FF01E042F29A2004B010BD73
:108C6000F8B501A94CF22970FFF7BEFC04B080BD35
:108C7000F8B501A94CF2C120FFF7B6FC04B080BDE5
:108C8000F8B5FFF7F0FC01A948F24E30FFF715FFE9
:108C900004B080BD80B584B003900398019020B1EA
:108CA000FFE70198012803D005E00320029002E0CD
:108CB00003200290FFE7029801F08EFD04B080BD12
:108CC000B0B548F25C11C2F200014A8A02F00F020C
:108CD000092A08D30C2A87BF502303EB02126FF036
:108CE000170303EB8202092818BFB0BD032000233D
:108CF00050FA82F08008DCB2A04206D901EB84046D
:108D00000133A5692DBAA561F5E78B6813B1D0B21F
:108D10001831984748F20800C2F20000BDE8B040A0
:108D200001F09BBB032808D148F25C10C2F200009E
:108D3000416811B149F24D1008477047F0B597B03E
:108D40000D460446082801D827460CE0182C04D804
:108D5000601E072101EB900705E0402C34D8601E0F
:108D60000C2101EB101704AE4C213046FFF71DFB20
:108D70004FF440602946224660F31F1748F25C100A
:108D8000C2F20000ADF8127040886FF3DF2080045B
:108D9000059006F10800FFF791FAE01C0021800819
:108DA0008AB2904206D906EB8202013193681BBA5F
:108DB0009360F5E700208DF80C00CDE9016001A873
:108DC00001F090F917B0F0BD42F29A20FAE72DE9D0
:108DD000F04387B050B148F25C180746C2F2000871
:108DE00098F8000028B1FFF727FC3FE042F29A20F4
:108DF0003CE000200E4615461C4679680390CDE9FC
:108E00000100386801AB324600F028FB49F24D19E9
:108E100048452BD107F1170001A90C22FFF74EFAA4
:108E2000384631462A46234600F0BBFB48451DD153
:108E3000DDE90E10A8F80210022188F8001040F6B3
:108E4000FF7160F31A410120CDF80E001220CDE928
:108E500005110121CDF80A000020ADF8080005A891
:108E6000019001A800F09FFF49F24D1007B0BDE846
:108E7000F08348F25C12C2F200021378022B04D095
:108E8000012B08BF02F068BF7047C2E902017047BA
:108E900048F25C11C2F200010A78022A04D0012AC9
:108EA00008BF02F05FBF70474860704780B548F266
:108EB0005C11C2F200010878022805D001282CD1EB
:108EC000BDE8804002F054BF8A6844F2345032B3A7
:108ED000CA6822B3496811B344F22400C4F2010005
:108EE00041684FF0FF3141600168016048F625504C
:108EF0000021C0F24B0001F087F848F6C140002184
:108F00000722C0F24B0001F0A8F848F20800C2F2B4
:108F10000000BDE8804001F0A0BAFFF78DFB80BDE6
:108F200048F25C12C2F200021278022A08BFFFF770
:108F300005BF012A1EBF4FF64170C0F20300704703
:108F400002F024BF51B110B51C4613460A46102149
:108F500000F007F8208049F24D1010BD42F29A202F
:108F600070472DE9F04743F200070446EFF31088FD
:108F7000012080F31088894616461D46C4F2010779
:108F80004A46386920F004003861386920F0020050
:108F90003861207839696FEA500060F30001396167
:108FA0004FF0FF31D4F805A038684FF0FF30FFF7DD
:108FB00046F9C9F120012AEA0002C9B28A403A60A2
:108FC000D4F801208243C0438A40FA607A6922F0D3
:108FD00003027A6125B116F8012B013DBA60F9E769
:108FE000FA6888F31088257892FAA2F3ED0708BF93
:108FF00022FA01F3D4F8091059400840BDE8F0877F
:1090000080B582B002210191084601F0F6FB01987B
:1090100001F0E2FB0199084601F0AFFB002001F0EE
:1090200068FB02B080BD072884BF42F29A207047D7
:109030000122EFF3108182F3108848F21402C2F289
:109040000002126802EB4010026942F440420261E1
:1090500049F24D10BFF34F8F81F310887047DEDE69
:10906000F0B50823C4F204039C6AE40702BF4FF67C
:109070004170C0F20300F0BD10B10568072D02D9A0
:1090800042F29A20F0BD01245E6904FA05F52E42F1
:109090001CBF4DF28160F0BD1D6002F01F0205682B
:1090A000AC40E4B29C6048F21403C2F200030478BE
:1090B0001D6805EB44148569A5603E2505EA41015C
:1090C00041EA8211C26902F0070241EAC22121612C
:1090D000C16907292ED80FF2080202EB81029746D8
:1090E00000F01DB800F011B800F014B800F008B896
:1090F00000F006B800F009B800F00CB800F000B8B5
:10910000FFF776FA01F1034115E0FFF771FA01F17B
:10911000064110E0FFF76CFA01F109410BE04168EC
:1091200001F007018A0442EA415141F00C4141F447
:10913000103100E00021E1600121006803EB8000B4
:10914000416049F24D10F0BDF8B50C25FFF793FAD8
:10915000082C08BFF8BD06FA04F02968014207D0C0
:10916000686007EB8400426A12B1002021469047F4
:109170000134EDE7F8B50425FFF77DFA082C08BFA8
:10918000F8BD06FA04F02968014207D0686007EBD1
:109190008400426A12B10120214690470134EDE774
:1091A00070B5082048F21401002302240025C4F2FF
:1091B0000400C2F2000100F1F8020A60012282629A
:1091C0000A681032202D05D04E1942F8353004358A
:1091D0007460F7E7FF21816001604EF204104FF4E4
:1091E0008041CEF2000001604FF48051016070BDFB
:1091F00048F21402C2F2000202EB800041627047A2
:10920000F0B548F21402C2F2000202EB80035B6880
:10921000022B02BF4FF64170C0F20300F0BD0728D9
:109220002ED869B31C23C4F204031B68C340DB07B8
:109230001CBF4DF28160F0BD1368EFF3108401256F
:1092400085F3108846010F689F5103EB40134E6869
:109250005E608968DE6861F30B06DE60EFF3108103
:1092600085F31088126802EB4010026942F0010297
:10927000026149F24D1081F3108884F31088F0BD2B
:1092800042F29A20F0BD0122EFF3108182F31088A0
:109290004DF2C822C0F24B0252F82000026822F0C0
:1092A0000102026081F3108870472DE9F0411446F5
:1092B00088460646B3F1CF3F0ED1A01908F104014C
:1092C00022465AB151F8043CD1E900750C31013AFB
:1092D000184438442844F4E7002701E040F001072F
:1092E000FFF7CEFB3046414622463B464CF748F05E
:1092F0000446FFF7B9FB2046BDE8F081B0B544F263
:1093000004036FF00042C4F2010362EA00021C6B26
:10931000224044F6E0241A63C4F201046FF0704264
:10932000D4F8305162EA01022A40C4F830216FF0CB
:109330000D1262EA91012268114021606FF44C41E4
:1093400061EA0000196808401860B0BD44F22402C8
:10935000C4F20102536823EA000050601068884399
:1093600010607047092808D30C2887BF502101EBF3
:1093700000106FF0170101EB8000C0B2704744F29B
:109380000001C4F201010A6830B122F00040086017
:109390000868C002FCD405E042F00040086008689C
:1093A000C002FCD57047B0B544F2040300F000429F
:1093B00000F44C40C4F201031C6B224344F6E02449
:1093C0001A63C4F2010401F0704201F00D01D4F8F7
:1093D00030512A43C4F83021226842EA0141216019
:1093E000196808431860B0BD10B5FFF783F944F25F
:1093F0000000C4F20100016821F4004164F3CF31A0
:109400000160BDE8104000F010B844F20000C4F262
:109410000100016841F080410160016841F0805124
:1094200001600168C901FCD5704744F6144001226F
:109430007346FFF768F99E4644F200000021C4F22B
:1094400001000162016821F080510160016821F092
:10945000804101600168C901FCD470477CB544F2C9
:1094600041254FF44874C0F20F05A9424FF44875E6
:1094700012D348F28145C0F21E05A94202D240F241
:10948000EE2509E040F6011640F27125C0F23D06D6
:10949000B14238BF4FF42F75CDE9004500F001F817
:1094A0007CBD2DE9F04188B00E460021CDE90611C2
:1094B000CDE9041144F24021C0F20F0188420FD8D7
:1094C00041F20021C0F27A018E4209D81C463BB11C
:1094D0000E99B1F57A7F9CBF0F9FB7F57A7F04D9BB
:1094E00042F29A2008B0BDE8F081ADF80A10802160
:1094F00015460122ADF8081040F20041ADF80C20ED
:109500006A46C0F2001101910821C0F28311009156
:1095100006AB294600F048F949F24D184045E1D123
:109520001020ADF80A706A462946ADF8080040F2EE
:109530000040C0F2200001900520C0F233000090EE
:10954000BDF81C00ADF80C0004AB304600F02CF95F
:109550004045C7D106A8214600F0B6F8FFF7C6F887
:10956000C0D1BDF814000028BAD0BDF816100139DA
:109570008AB2FF2AB4D8BDF81020013A93B2FF2B6B
:10958000AED8BDF81230013B9DB2FF2DA8D80138EE
:109590000025A37262722172E08049F24D10E572DB
:1095A000A0E72DE9FF410F4644F24121044600683F
:1095B0001D461646C0F20F01884209D341F2002130
:1095C0006068C0F27A01884202D942F29A2078E0BB
:1095D0002046394600F08EF9D4F81710D4F81F3021
:1095E0000DF1040CD4F81B206068ACE80E00190ED5
:1095F00051FA93F151FAA3F10331052901D2002068
:109600000CE0B7FBF0F20020914207D8B2FBF1F179
:10961000B0EB114F0CBF481E4FF6FF70ADF80A00BB
:1096200001A800F015FC44F6FC38C4F20108D8F893
:109630000470FFF7EAFE44F2000006F00302C4F2F1
:109640000100016841F400610160416821F080017E
:1096500041604FF4403101EA064165F3DF7141EAB0
:10966000C2414FF6FF72C7F6E4723A401144F5B1B9
:10967000627BE2B9B4F81D20A57D94F8203094F8FF
:109680002240234401320233534385F00102920702
:109690007E2B06D803F07F0342EA034242F00042E9
:1096A00003E042F0004242F4FE02C8F80020C8F88D
:1096B0000410416B41F480514163FFF7B6FE49F25B
:1096C0004D1004B0BDE8F081B0B58288C2B1C38846
:1096D000013B9CB2FF2C13D80488023CA5B2FF2D9D
:1096E0000ED84088013885B2FF2D09D80871501E68
:1096F0000025CC708B70088049F24D104D71B0BDC3
:1097000042F29A20B0BDDEDE44F60041C4F201010F
:1097100009680FF20C02C1F3014102EB8102974686
:1097200000F006B800F01BB800F004B800F00DB867
:10973000000121E0C1B20C22B1FBF2F101EB4102C8
:10974000A0EB8200C2B2920011E0C1B20722B1FBCD
:10975000F2F1A1EBC1021044C2B2D20007E0C1B2E3
:109760001522B1FBF2F101FB1200C2B2520052FA13
:1097700080F0490201EBC0008008704744F22000ED
:1097800044F6FC210023C4F20100C4F20101CFF22F
:1097900003030068D1F8182109681A404FF0341308
:1097A00003EA8101114470472DE9F04F87B000931F
:1097B0000023B2F800E0B2F802A002934BF2E733C4
:1097C00003934FF6FF73CDF810E005930023019348
:1097D0004FF6FF7306931FFA8AF4744571D304FBA6
:1097E00000F3B1FBF3F707FB1313002B66D193884B
:1097F0009F4266D8B2F80AE04FF47A7C0EFB04F37D
:1098000003F5FA75B3F5FA7FB5FBFCF5A5F1010890
:1098100038BF4FF00008B8F1020F98BF4FF00208B0
:10982000D388984588BF98466FEA08032344022BE3
:109830003CBFA4F1030802231589EE43AB4288BF65
:1098400006EB04084FF0010488BF2B4614FA88F495
:10985000E51804FB0CF41FFA87FCB4FBF5F5AEB277
:10986000AEEB0509B6451E4638BFA5EB0E091FFA3B
:1098700089FE984538BF4646B2F80CB0ABEB0705F9
:10988000E34538BFA7EB0B05069CA4B2A645DDF85F
:1098900010E006D312D8059C1FFA84FCACB26445D4
:1098A0000CD21FFA88F4C7EA0646CDE9055944EA06
:1098B00003430196029349F24D130393AAF1010A5F
:1098C00089E749F24D110398884204D1009A029920
:1098D00011600199516007B0BDE8F08F00F024BC21
:1098E00000F022BC00F020BC00F01EBC00F01CBC4C
:1098F00000F01ABC2DE9FE4340B1894644F24021F4
:1099000005460068C0F20F01884203D942F29A204E
:10991000BDE8FE830520012100F06FFF0520022134
:109920004FF0020800F029FF042000F004FF04209B
:10993000012100F062FF0420012100F01EFF04203D
:1099400000F0E8FE00F09DF844F20007A868C4F2B9
:1099500001070028796821F4005118BF01F5005172
:1099600001207960FFF70BFD00F0C5F9786B40F03E
:1099700000507863D7F8E00A20F00040C7F8E00A0A
:10998000287DD7F8E01A002821F4807108BF01F57E
:109990008071C7F8E01A687DD7F8E01A002821F036
:1099A000800118BF8031C7F8E01A786B41F22801B6
:1099B00020F0005078637868884339686B7B2A7B95
:1099C000AE7BEC7B002B18BF00F58050002E18BF3B
:1099D00020306B7C002B18BF08302B7CAE7C78606D
:1099E0004FF68070CFF67C700840002E18BF00F54F
:1099F0000000511E01F07F01002C084418BF00F543
:109A00008030002B18BF00F500303860386820F433
:109A100000603860786B20F480207863786B20F4E5
:109A200040707863786B68F387107863386820F447
:109A300080503860D5F81710D5F81B20D5F81F30A6
:109A400028688DE80E00090E51FA82F151FA92F160
:109A500021B1B9FBF0F00431814201D9002007E0C7
:109A6000B0FBF1F0B0F5803F34BF01384FF6FF7026
:109A7000ADF80000684600F028FA49F24D10BDE844
:109A8000FE83072010B100BF0138FBE7704770B5B7
:109A900044F60C450446C4F201052868B0F1FF3FC6
:109AA000C4BF4BF2E73070BD46F20200C4F20100C1
:109AB000008800F00F00FFF755FCC61C46F20001BD
:109AC00026F00300C4F2010100F10C022046FEF76B
:109AD000F5FB04F10800B10850F82120A26400222F
:109AE000102903D240F821200131F9E7A86840F09D
:109AF0008050A86049F24D1070BDF8B50C4644F690
:109B00000041C4F201010D68FFF7FEFD44F20801B7
:109B1000C4F2010101EB8006B36FF66FC3F3036279
:109B2000022A1FBF062A08684BF2E730F8BD6768B3
:109B30002380C5F30145023066F31C074FF400464D
:109B4000676006EA1346C3F38077C3F3054346EA2A
:109B50008736678807F47F573B443344638002238A
:109B6000AB400025EEB2B34208D904EB86070644A9
:109B7000013501EB8606B66FBE60F3E70868022A7E
:109B80004FF68260C0F2030008BF49F24D10F8BDE5
:109B900010B544F20001C4F201010A6892005CBFF2
:109BA0004BF2E73010BDD1F88020D1F88430446802
:109BB00063F31C0443880280120C9B09446063F326
:109BC0009F12428002F07F02D1F888308360D1F882
:109BD0008C30C360CB6C42EAC3124280886849F281
:109BE0004D1010BD70B544F208030246C4F20103E3
:109BF00043EA0010846FC4F3036002280AD00628E9
:109C00001EBF18684BF2E73070BD4FF68260C0F29D
:109C1000030001E049F24D1003EB0212D56F4E68CC
:109C20000C80240C65F31C064D88AD094E6065F36D
:109C30009F144C80D2F880408C60D2F88420CA6097
:109C4000196870BD70B5012824D14AF22C34C2F2D3
:109C50000004A06888421DD144F60C45C4F20105F9
:109C60002868B0F1FF3F2EDDA06BE16B0131E163AD
:109C7000E16B81420FD100F099F9226812B161685D
:109C8000092090472868B0F1FF3FDEBFA86840F088
:109C90008050A86070BDA068FFF7F5FA2868B0F1A1
:109CA000FF3FE06BC7BF616C01EB0010216C4C22E1
:109CB000D8BF00FB0210E06204F12801A068BDE8F3
:109CC0007040FFF79DBAE06B216C4C2200FB02163E
:109CD000708800F00F00FFF745FB033006F1080124
:109CE000800851F82020B26400220F28BCD841F827
:109CF00020200130F9E770B544F20004C4F20104F9
:109D00002068C002FCD4206840F000702060206809
:109D10008001FCD4206849F6832640F40010C0F28C
:109D20004B0640F03F002060606B40F08050606365
:109D3000206820F000502060B04700254FF42661D5
:109D4000E564206840F40060206044F28000C4F2C2
:109D50000100FEF72AFBB04744F6204042F2E051F2
:109D6000C4F20100FEF721FBB047606B012220F036
:109D70008050606344F61440FEF7C5FC4FF0FF309E
:109D8000256220636FF04040E562402D05D004EB72
:109D900085010135C1F88008F7E700202061606186
:109DA000A061A06470BD70B50D46FEF7A3FC44F63B
:109DB0000C4147F20000C4F20101C4F201004DB3AE
:109DC0004FF000420A608A6842F058428A60D4F834
:109DD0000650227963790E6803F07F0302F03F0298
:109DE00005F01F0546EA856545EA034343EA02227A
:109DF0000A600222217902EB41010022082A15D0D3
:109E00008A423ABF236853F822304FF0FF3308C02C
:109E10000132F3E70A6822F000420A6000214FF0A5
:109E2000FF32202910D00A500431FAE744F23401FD
:109E3000D4F80A00C4F201010A68012822F4802241
:109E400018BF02F580220A60BDE87040FFF7EDBA46
:109E5000B0B50446FFF7D9FA44F234004FF07075FC
:109E6000FEF7D8FCE28862F319410160217A627A38
:109E7000A37AE47A05EA8151224402F01F0263F3D7
:109E80000F3111448160BDE8B040FFF7CEBA70B524
:109E9000FEF7DEFC002C18BF4FF0006445F82040B0
:109EA0000421022301EB8002002102305151C6F34C
:109EB000014203FA02F20023DCB2A24298BF70BD55
:109EC0000444013345F82410F6E710B50446FFF7C3
:109ED0009CFA44F23400FEF79DFC228862F30901EB
:109EE0000160A178E27823796479224401F07F014E
:109EF0000132D2B242EA815103F07F0241EA0231DB
:109F00004160BDE81040FFF790BA44F280030201BF
:109F1000C4F20103002918BF4FF0006103EB0010E9
:109F20009950002141608160C1607047B0B5FEF773
:109F300071FBFFF70BFAFEF725FC8560C0F818529D
:109F4000B0BDB0B544F60C404AF27434C4F201001E
:109F5000C2F200040068B0F1FF3F09DC00204FF0BE
:109F600050410025FFF7CAF9C4E98455C4F80C52E2
:109F70000020C4F81803B0BD44F20001C4F201018E
:109F8000086880004AF27430C2F200000AD58A6A7A
:109F900022F0E0028A624A6A4A620021C0E9841122
:109FA000C0F808120021C0F81813704710B54AF223
:109FB0002C34C2F20004A068FFF765F9002060634A
:109FC000C4E91000A063E0630020BDE81040FFF783
:109FD0000BBA70B5FEF71EFBFFF7B8F94AF2743002
:109FE00044F28001C2F20000C4F2010100EB8406D9
:109FF00020010858012180B2C6F81C032046FFF753
:10A0000084FFC6F8185270BD80B54AF27432C2F2AD
:10A010000002C2E9000128B14FF44C400D21FFF7C6
:10A02000C2F904E04FF44C400D21FFF767F94EF2FE
:10A0300004104021CEF200000160202101604FF4A5
:10A04000807101604FF4007101604FF400610160A4
:10A050004FF0005140F8041C80BDF8B54AF22C378F
:10A060000D4606463C211446C2F2000707F10C00DB
:10A07000FEF79BF949F6454100207863C7E9006582
:10A08000BC60C0F24B012046BDE8F840FFF7B0B815
:10A09000B0B5FEF7BFFAFFF759F9FEF773FBC0F84A
:10A0A0000851C0F81852B0BD70B5FEF7B3FAFFF70B
:10A0B0004DF94AF27430C2F2000000EB84062046EB
:10A0C000FFF722FB44F28001C4F2010151F82000A5
:10A0D000012180B2C6F81C032046FFF7D8FEC6F85F
:10A0E000185270BDB0B528B1FEF77DFB05D04DF21A
:10A0F0008160B0BD42F29A20B0BD01F506722168C0
:10A100004B88DB064FF0040358BF0323136000F0B5
:10A11000DCF949F24D11227A884203D1FEF7E2FAC6
:10A12000FEF70ABBFEF7E9BA2DE9F84F40F206093F
:10A1300044F2000744F6104B4FF00D08C0F23B0903
:10A14000C4F20107C4F2010BFFF718FB04460D46E9
:10A1500001EA080004EA0901084311D0FEF70DFBEB
:10A160004AF274324FF00C0ACFF6FF71C2F20002CD
:10A17000CBF8040001204BF80100C7F820903BE128
:10A18000DBF8000010F0504F18BF15F0504F1DD1F4
:10A190000024402C3BD0012000212246FEF74FF83E
:10A1A0000546386B0E46F96A2840314008430BD00B
:10A1B000204628211F2C88BF203888BF24217958A9
:10A1C00021FA00F0C00729D10134E2E7DBF80000F2
:10A1D000C00001D5E80060D4DBF800004AF2743218
:10A1E000C2F20002B0F1FF3FD8BFB5F1FF3F76DD0C
:10A1F000DBF8000040006FD568006DD5FEF7BDFAB2
:10A200004FF0070ACFF6FF7140F080406FE04AF24E
:10A2100074324FF00E0AC2F20002ECE038684AF2E3
:10A2200074328000C2F2000223D402EB840ADAF80E
:10A2300018020138032800F2CA800FF2080101EB6E
:10A2400080018F4600F006B800F058B800F05DB805
:10A2500000F062B83868000568D4DAF80810E0B297
:10A26000FFF7C0FCFEF742FA40F08080DAF8080001
:10A2700066E0D2F81803072CD7D80028D5D00120E3
:10A28000A040202800F08380802800F0A380402890
:10A2900040F09D804FF00B0AABE04AF27432C2F2FC
:10A2A0000002D2F81002B8B1D2F80C021646FFF73D
:10A2B000EEFBFEF71BFA35D1D6F80C02D6F81012D9
:10A2C0004C30C6F80C02481EC6F8100200F085801B
:10A2D00032464FF0080A8FE04FF00E0A8CE0FEF78E
:10A2E0004CFA4FF0100ACFF6FF7140F00040CBF867
:10A2F000040000204BF8010038627DE0386800055A
:10A3000024D4E0B2FFF712FE23E03868000525D41C
:10A31000E0B2FFF75EFE24E00220CAF818024FF018
:10A32000040A66E04FF0010A324665E0DAF80811E7
:10A33000E0B2FFF7E2FBFEF7D9F917D1DAF808012E
:10A340000088CAF81C034FF0060A11E0E0B2FFF7DC
:10A350009FFE4AF274324FF00F0A15E0E0B2FFF7A9
:10A36000A3FE4AF274324FF0030A0DE04FF0010AE7
:10A370003868000503D4E0B2FFF7D8FD02E0E0B290
:10A38000FFF786FE4AF27432C2F2000231E0D2F8E0
:10A390001002E0B1D2F808029246FFF7F9FBFEF78F
:10A3A000A5F923D1DAF80802DAF810120088CAF801
:10A3B0001C03481ECAF81002DAF8080200F1100067
:10A3C000CAF8080240D052464FF0080A11E04FF098
:10A3D0000E0A0EE04FF00A0A0BE0FFF7B2FD4AF258
:10A3E00074324FF0090AC2F2000205E052464FF003
:10A3F000010A3D63FE620025116829B150682246BA
:10A400002B46009050468847FFF7B8F901EA08014B
:10A4100000EA090008430DD0FFF7B0F911F0504FE2
:10A420007FF492AEDBF80000DBF8041001427FF409
:10A430008BAE10E0B86A396B0840796AFA6A11404D
:10A4400008437FF481AE06E0FFF796FD4AF27432CE
:10A450004FF0090A98E7BDE8F88F10B544F60C41B3
:10A460004AF22C3400220123C4F20101C2F200049A
:10A470000968E2630222C4E904336262E261A26114
:10A4800046F20002C4F20102A262D0E90020226476
:10A49000E2620022A063C1F384600A210130E0601F
:10A4A000206304F10800FEF7DBFDA068FEF7BBFDAA
:10A4B000606B052804BF4DF2816010BDFEF72DF9D9
:10A4C000FEF7E2F849F24D1010BDF8B5FEF7C0F9FD
:10A4D00055F8201001F07062B2F1406F04BF4BF2EA
:10A4E000E730F8BD082262F31B6145F8201005EB48
:10A4F0008001626822F060424A60C6F30141022294
:10A5000002FA01F16288930602F01006C2F3803E5F
:10A510004FF0466358BF4FF04063002743EA0643BD
:10A5200002F4004643EA064302F00F0643EA064CF3
:10A53000861CFAB2914207D9B31804EB82020137A4
:10A54000926845F82320F4E74CEA8E7145F8201014
:10A5500049F24D10F8BD80B5FEF72BF9006800B147
:10A5600080474FF6E8700121FEF7F3B880B5FEF79B
:10A5700020F9406800B180474FF6E8700221FEF7ED
:10A58000E8B880B5FEF715F9806800B180474FF64E
:10A59000E8700421FEF7DDB880B5FEF70AF9C0685F
:10A5A00000B180474FF6E8700821FEF7D2B880B5B9
:10A5B00004207E2100F042F84FF254000021C4F242
:10A5C000000001600420002100F01EF84FF6D87052
:10A5D0000F21C4F20000016001614EF200104FF43F
:10A5E0008011CEF2000001604FF4001101604FF4C1
:10A5F000800101604FF4000101604AF2A070012166
:10A60000C2F20000017080BD042884BF42F29A208B
:10A6100070470AD14AF290720020C2F20002042868
:10A6200009D042F820100130F9E74AF29072C2F2E4
:10A63000000242F8201049F24D107047042884BFF0
:10A6400042F29A2070470BD14DF288220020C0F2CE
:10A650004B0204280BD052F8203001301960F8E783
:10A660004DF28822C0F24B0252F82000016049F2FC
:10A670004D107047012101FA00F04EF6E071FDF730
:10A68000D0BF4EF20801FEF784B82DE9F84F4EF620
:10A69000CC7800246FF01F074FF0030AC4F20008C3
:10A6A000D8F81C60D8F82090D8F80050102C08BFBB
:10A6B000BDE8F88F26FA04F0C00717D007F1200094
:10A6C0000AFA00F101EA090B1BEA05010CD04AF273
:10A6D000A472C2F2000252F824202AB121FA00F03A
:10A6E00000F0030120469047C8F824B00237013437
:10A6F000DCE70122EFF3108182F310884DF808EDBA
:10A70000FEF77DF85DF808EB60F38813136081F3C2
:10A71000108870470122EFF3108182F310884DF802
:10A7200008EDFEF76CF85DF808EB60F30E3313608C
:10A7300081F3108870470122EFF3108182F31088B3
:10A740004DF808EDFEF75BF85DF808EB60F3D133E8
:10A75000136081F3108870470122EFF3108182F3B8
:10A7600010884DF808EDFEF732F85DF808EB60F35D
:10A770000E33136081F31088704710B50123EFF397
:10A78000108283F31088FEF719F84EF20003FDF7EC
:10A790008CFF82F3108810BD012101FA00F04EF603
:10A7A000E471FDF73EBF01EB4000012101FA00F02A
:10A7B0004EF6F471FDF735BF0122EFF3108182F3FD
:10A7C00010884DF808EDFEF731F85DF808EB1843F6
:10A7D000106081F3108870470122EFF3108182F33B
:10A7E00010884DF808EDFEF721F85DF808EB23EA34
:10A7F0000000106081F31088704710B50123EFF35B
:10A80000108283F31088FDF7D9FF4EF20403FDF7A1
:10A810004CFF82F3108810BD7FB50824C4F20104F8
:10A82000A068C0076ED10020CDE902008DF80600B7
:10A8300002A9ADF80000CDF802106068C00476D41B
:10A840002068800742BF206840F002002060206836
:10A85000C0071CBFE06B002840F0B48020684007B0
:10A8600040F1AF80E06B002800F0AB80FDF725FFE2
:10A87000226B01F8082C226B120A01F8072C226BBC
:10A88000120C01F8062C226B120E01F8052C626BDB
:10A8900001F8042C626B120A01F8032C626B120C93
:10A8A00001F8022C626B120E01F8012C616ADDF8CE
:10A8B000022001764169E36B03EB0313194451F85D
:10A8C000083C51F8041C51601360FDF76AFF8DF8D5
:10A8D0000110616A8DF80610E16A01F03F018DF800
:10A8E0000010816809B168468847206840F004007C
:10A8F0002060206840F001002060206840F4007073
:10A9000020605EE000200290FDF727FFC1690391FF
:10A91000E26852074DD5427E002A4AD190F82E2097
:10A9200082B194F8342003690B44012112E0FDF751
:10A9300014FFC16809B100208847606820F4805086
:10A9400060607FBD0269A58E8D54C16911442A0AD9
:10A950004B1C02211A700023E26842F00402E260FC
:10A9600002694668551843F100034EB1AE1B73F1FE
:10A97000000616D2468BAD1B73F100030ED310E018
:10A98000468BAD1B73F100030BD248F20405C3697B
:10A99000C2F200059B5C2D789D4203D011440161F9
:10A9A00007E00A44002102920161016809B102A88E
:10A9B0008847E068800741BFE06840F00200E0603F
:10A9C0007FBD7FBDFDF779FE11F8082C236B23F0C6
:10A9D000FF031A44226311F8072C236B23F47F43EF
:10A9E00043EA0222226311F8062C236B23F47F032F
:10A9F00043EA0242226311F8052C236B23F07F43C4
:10AA000043EA0262226311F8042C636B23F0FF0314
:10AA10001A44626311F8032C636B23F47F4343EA07
:10AA20000222626311F8022C636B23F47F0343EA72
:10AA30000242626311F8011C626B22F07F4242EA1B
:10AA400001616163FDF7ADFEE26A61F38C22E262AF
:10AA5000017EE26A01F0010122F4807242EA0121E2
:10AA6000E1624069E16B01EB0111084450F8100C00
:10AA7000E16A60F34921E162A06A40F48060A0626B
:10AA8000206840F001002060E8E6DEDE80B586B098
:10AA900048F20000C2F20000006805904AF2283037
:10AAA000C2F200004FF4970101600168C96C019186
:10AAB0000168096D02910168496D03910068806D1C
:10AAC000049048F28821C2F200010198029A039B87
:10AAD000DDF810C0C1F80CC08B604A60086048F215
:10AAE0007D21C2F200010020087048F28421C2F2E8
:10AAF00000010A20087048F28021C2F200011020F3
:10AB0000086048F27C21C2F200010120087048F27E
:10AB10000000C2F2000000680599884202D1FFE7F8
:10AB200006B080BDFDF7FCFE80B582B00520FDF7C4
:10AB3000D9FEFDF7B1FE002200921146FDF71EFD81
:10AB4000019001993720FDF7AFFEFDF7A5FE009AB1
:10AB50000221FDF713FD019001991820FDF7A4FED5
:10AB600001991D20FDF7A0FE01992520FDF79CFE0F
:10AB700001992620FDF798FE01992820FDF794FE03
:10AB800001992920FDF790FE01992B20FDF78CFEFD
:10AB900001991420FDF788FE01991520FDF784FE28
:10ABA00001991620FDF780FE01991720FDF77CFE24
:10ABB00001991C20FDF778FE01992E20FDF774FE07
:10ABC00001992C20FDF770FE01992D20FDF76CFEF8
:10ABD00001995320FDF768FE01995420FDF764FEAA
:10ABE00001995520FDF760FE01995620FDF75CFEA6
:10ABF00002B080BD2DE9F041144688460646B3F107
:10AC0000CF3F0ED1A01908F1040122465AB151F8E4
:10AC1000043CD1E900750C31013A18443844284409
:10AC2000F4E7002701E040F00107FDF729FF304677
:10AC3000414622463B464AF723F40446FDF714FFFB
:10AC40002046BDE8F08110B542F21C00FDF7FDFC86
:10AC500021F003010160606DFEF715FBA06DFEF7AA
:10AC600012FB0020606410BDFEB50446D0F822003F
:10AC70000D46FEF708FBD4F81E00FEF704FB42F277
:10AC8000100743F60371C4F20107386820F0010091
:10AC90003860F86820F00300F860386840F44070CD
:10ACA000386043F60370C0F200107860B8688843DB
:10ACB000B86028686968AA682060A2606160386826
:10ACC00040F001003860386D29686A6820F4F800A7
:10ACD000002908BF00F58020002A08BF00F50020E9
:10ACE00038656068A8B16868A9686E460C22C4F827
:10ACF0002A00C4F82E1004F126013046FDF7DEFAD2
:10AD0000D4F81E003146FEF77BFAF86840F00200E6
:10AD1000F8602068B8B1D4F82200FEF784F92868FA
:10AD20002146AA686D4641F8320F28468A600C22F7
:10AD3000FDF7C4FAD4F822002946FEF761FAF86854
:10AD400040F00100F860B86840F40070B860FEBDE3
:10AD500010B542F29A22C8B1C1B1428952B1C3883A
:10AD60000268D35C0BB90023C380C38813449C786A
:10AD7000E40702D14BF2E73208E01B880B80C08861
:10AD8000104449F24D120330C1F80200104610BDC4
:10AD9000F8B542F29A2348B341B3D61CB4B2042C9E
:10ADA00002D242F29A2321E0EFF31083012585F3CA
:10ADB000108887884589AF4204D945897D1BADB28B
:10ADC000AC4215D900270024002583F310885FB119
:10ADD000006810FA85F0FDF771FAA07849F24D137A
:10ADE00040F00100A07001E04BF2E7331846F8BDD7
:10ADF0000589B0F806C07F1BA74209DAAC45E1D847
:10AE000000276445DFD8046867550325046802E01D
:10AE100004682C440335A778228007F0FE07A7704A
:10AE200047893E444681AEB28788BE1B9642D4BF56
:10AE30000026AE1806810127C7E7B0B54AF6E00044
:10AE400042F21405C2F20000C4F201050468286849
:10AE5000C0070BD06868C00708D00020FFF7ACFC23
:10AE6000686840F6010188436860296028688005A9
:10AE700002D56868800500D4B0BD4FF4007049F277
:10AE80004D1128602046D4F81620D4F81A30BDE8B9
:10AE9000B0401847B0B542F2140448F21C25C4F281
:10AEA0000104C2F200052068400510D56068400525
:10AEB0000DD5606820F4806060604FF48060206091
:10AEC000FFF7C1FEEA6C12B1002000219047206814
:10AED000800512D5606880050FD5606820F4007089
:10AEE00060604FF40070206000206864EA6C22B15A
:10AEF00000200021BDE8B0401047B0BD48F21C2042
:10AF0000C2F2000000787047FDF767BC2DE9F047FA
:10AF100048F22014C2F2000494F806A0E77BB4F8CB
:10AF200022906069C0B342F21808E08BC4F20108B5
:10AF300048B3FDF77AFBE68B350400F065F9F5B10F
:10AF4000E8B1D8F85C10608CFDB2534601386084DB
:10AF5000B0B2B4F82290A8423EBFE673E57B2F461C
:10AF6000608B6269BAF1000F18BF01231044FAB276
:10AF700000F080FA608B761B28446083DCE7E68370
:10AF80000DB1FDF7A4FBA089814505D8B9F10100F9
:10AF900038BF0020FDF7E6FBA08B08B100F0D1FD23
:10AFA000A08B08B1BDE8F087E08B0028FAD160697A
:10AFB000A8B942F218004FF40072C4F2010050F830
:10AFC000041C40F8042C890509D4016841F400717F
:10AFD0000160016821F003010160BDE8F087BDE870
:10AFE000F04700F08CBD2DE9F04748F2201A42F2FC
:10AFF0001808C2F2000AC4F201089AF806709AF81A
:10B000000F60BAF82290DAF8140000283ED0BAF89F
:10B010001E0088B3FDF709FBBAF81E40250400F0B6
:10B02000F3F825B318B3D8F85C10BAF82200F5B2DB
:10B030003B460138AAF82200A0B2BAF82290A842F2
:10B040003EBF8AF80F40E5B22646BAF81A00DAF891
:10B050001420002F18BF01231044F2B200F00AFAA6
:10B06000BAF81A00641B2844AAF81A00D6E7AAF80E
:10B070001E400DB1FDF72BFBBAF80C00814505D839
:10B08000B9F1010038BF0020FDF76CFBBAF81C00D5
:10B09000D0B19AF8070080B3D8F8480040F4802077
:10B0A000C8F84800BAF80800BAF81C10814228D144
:10B0B0009AF8040020B3D8F8480020F45010C8F8DB
:10B0C0004800BAF808001CE000F0C8F8BAF80A1006
:10B0D00088421BD29AF80400C0B19AF80500A8B1C2
:10B0E0009AF8070090B9D8F8480020F48010C8F802
:10B0F000480000208AF8050008E000F0D1FD05E0D6
:10B100000846BAF81C10081AAAF81C00BAF81C0065
:10B1100008B1BDE8F087BAF81E000028F9D19AF806
:10B1200005000028F5D1DAF81400A8B958F8040C85
:10B1300040050DD4D8F8000040F48060C8F8000045
:10B14000D8F8000020F00300C8F80000BDE8F08740
:10B150004FF4806048F8040CBDE8F04700F08BBD68
:10B160000139032984BF002070470FF2080303EB65
:10B1700081039F4600F006B800F01AB800F004B84A
:10B1800000F00AB8007870470178D2B14278807830
:10B19000120242EA014109E00178CAB1427883789B
:10B1A000C078120442EA016141EA03210844704771
:10B1B00001784078002A0CBF41EA002040EA0120D3
:10B1C00070474278807841EA022141EA00407047A6
:10B1D00042788378C07841EA022141EA034141EA9A
:10B1E0000060704740F20C124001C4F20402135890
:10B1F00023F0806361F39A63135070477146FDF743
:10B2000022FB8E464078704742F20401C4F20101ED
:10B21000886DCA6EC0F3034002F00202024300D000
:10B22000704708680121C0F3072001FA00F080B2DE
:10B23000704742F20401C4F20101886DCA6EC0F386
:10B24000034002F00202024300D070470868012167
:10B25000C0F3072001FA00F080B2704742F2040107
:10B26000C4F20101886D0A6900F00F0002F00102CA
:10B27000024305D108680122C0B202FA00F080B290
:10B280000969090548BF0020704742F20401C4F271
:10B290000101886D0A6900F00F0002F0010202430B
:10B2A00005D108680122C0B202FA00F080B2096933
:10B2B000090548BF002070474AF66100C2F200004D
:10B2C00090F8600008B100F02BBAAFF300807CB5B5
:10B2D00042F218044AF66105C4F20104C2F2000504
:10B2E00054F8040C40051BD52068400518D520688B
:10B2F00043F6037188432060D5F86900012806D120
:10B30000D5F8711049B149F24D10884705E0D5F8DC
:10B31000752012B10020002190470020C5F865007B
:10B3200054F8040CC00719D0D5F86900012815D1CC
:10B330002068C00712D0206820F001002060B5F816
:10B340003F00B5F84E10814202D100F085FA05E0C9
:10B35000206840F00100206000F0E0FA54F8040C8E
:10B36000800740F18580D5F86900002840F0808092
:10B37000206880077CD5206820F002002060D5F886
:10B380004100002864D0B5F83F00B5F8501088425D
:10B3900007D9B5F85010411A8EB2032E88BF042683
:10B3A00000E00026B5F8501080B288422AD9B5F8DE
:10B3B0005010801B884225DBB5F85200864221D808
:10B3C000FFF737FFF0B1E16DB5F85000D5F8412037
:10B3D0002B781044F2B200F04DF8B5F8500030442C
:10B3E000A5F85000B5F85200801BA5F85200B5F83A
:10B3F0003F00B5F85010411A8AB2CEB2042A88BF75
:10B400000426CFE7B5F85200C0B9B5F83F00B5F84B
:10B410005010884212D9B5F85010461AA06C40035B
:10B42000FCD4686D0090B0B2B0F5007F28BF4FF437
:10B430000076B2B2FDF7E9F9A5F85260B5F8500010
:10B44000B5F83F10814282BF206840F002002060C2
:10B45000B5F85000B5F83F10814209D10020C5F879
:10B460006500A06C4003FCD4BDE87C4000F0F4B95A
:10B470007CBDDEDE10B5013A032A1CD80FF20804A9
:10B4800004EB8204A74600BF00F010B800F004B837
:10B4900000F007B800F00CB80BB109BA090C018034
:10B4A00010BD4BB10A0A8170090C4270017010BDC9
:10B4B00003B109BA016010BD0A0C0170090A82705B
:10B4C000417010BDBFB54AF2E473002842F218057E
:10B4D000C2F20003C4F2010503F1580418BF03F1DE
:10B4E0005C04246808BF9208039200290A4608BF3A
:10B4F00003F16102002808BF05F15C0201920A46CF
:10B5000018BF05F14C02029238B12046002918BF3D
:10B510000121FFF767FE012000E00220296843F6C1
:10B520000372914329606968084368602046FDF70B
:10B530007AFD01A92046FDF763FEBFBD2DE9F84F56
:10B540004AF2E477132600254FF00009C2F2000703
:10B55000D7F86900D7F86D20B91D531E042B38BFEA
:10B5600003FB0615D7F86D30012454FA83F8DBB2DB
:10B57000042B88BF4FF00008A8F10104042C38BF49
:10B5800014FB061942F21806042AC4F201060CBF85
:10B590000028002D5BD1B8F1050F2DD0032C2BD83E
:10B5A000B8F10105C7F86D8018BF0125B9F8000092
:10B5B00004282ED320F00304B0F5007F88BF4FF499
:10B5C0000074D7F86900A9F80F40D9F807100429CA
:10B5D00008BF002871D0D9F80B30786D2946224673
:10B5E0004FF0010B3546FDF7C4F8D9F802100120E1
:10B5F0002246FFF767FF6FE0B8F1050F23D1052062
:10B600003446C7F86D0000F027F94FF0000A01201A
:10B610006FE0D7F8690000284AD1D9F8070004285C
:10B6200046D13068012134464FF0000A4FF0010B3B
:10B6300040F002003060D9F80B30B9F80020786D86
:10B64000FDF74CF84AE000204FF0000A51E029884D
:10B65000B5F80F00884218BF11F003029BD04FF0DD
:10B66000000B3B784FF0000AABEBC100002B18BF7A
:10B6700000F0180356F8040CC0072FD04AF2E47704
:10B680009A46D5F80B308B4601211646C2F20007C8
:10B69000786DFDF76EF8D5F80200B8B32BF0030112
:10B6A000002208443146FFF75BFD00FA0AF02EE065
:10B6B0004FF0000A4FF0010B10E0D9F80210002003
:10B6C0002246FFF7FFFED9F80B30786D2946224657
:10B6D000FDF704F84FF0010B4FF0010AA8F1050047
:10B6E0004AF2E477B0FA80F0C2F20007400900EABB
:10B6F0000B00D7F86D1038B9BAF1000F04D119B1A9
:10B70000306840F001003060BDE8F88F002042F260
:10B710001806C4F20106F0642888A5F80F003AE77D
:10B72000F8B542F214054AF2E474C4F20105C2F21B
:10B7300000046E682868400523D5700521D5686827
:10B7400043F603718843686043F60370C0F200104B
:10B75000286000F0C0F8D4F8690038B9D4F8752032
:10B7600022B1002000219047D4F86900012805D1BA
:10B77000D4F8711011B149F24D1088470020C4F877
:10B780006D00286880071ED5B0071CD5686820F0BA
:10B7900002006860B4F83F20296ED4F8413022F0EE
:10B7A000030002F0030218440023FFF763FEB4F81D
:10B7B0003F00A4F84E00E86C4003FCD40520C4F818
:10B7C0006D0000F049F82868C0070AD0F00708D0DB
:10B7D000686820F001006860D4F86D000138032823
:10B7E00000D9F8BD132100FB014535F8152F35F8B8
:10B7F0000F1C21F00301914208D92A888E1AB2B297
:10B80000B2F5007F04D229883AB90BE0288809E014
:10B8100029884FF400764FF400724FF6FF735940B9
:10B820008A4203D9BDE8F840FFF788BE132100FB28
:10B830000147606DB4B201212246D7F81130FCF700
:10B8400098FFB8682988224601440120FFF73AFE94
:10B85000288830442880F8BD42F214004FF48061FB
:10B86000C4F201000160416841F4806141600168F7
:10B87000C907FCD0C16C21F44011C1647047F0B518
:10B8800042F260040229C4F2010425681FD0D600E8
:10B89000059F01294FF0E06108BF45F4801501EADA
:10B8A000076163F31141731E002A4FF200026FF328
:10B8B0001F33CFF6D00208BF072319442A40114492
:10B8C00000280CBF41F4101041F4201001E025F4D1
:10B8D00040102060F0BD10B542F2100043F6037234
:10B8E0004AF2E474C4F20100C2F20004016841F4B7
:10B8F0004071016043F60371C0F20011416081683C
:10B9000091438160C16821F00301C160E06DFDF7E2
:10B91000BAFCA06DBDE81040FDF7B5BC2DE9F84FAD
:10B920004AF661044FF0060B4FF0080AC2F2000419
:10B9300004F1060804F1190504F12C0604F13F078F
:10B94000FFF7A3FCD4F80210884280F09080D4F86E
:10B9500065000138082820D80FF2080101EB8001AA
:10B960008F4600BF00F010B800F00EB800F00EB81F
:10B9700000F00CB800F00CB800F00AB800F00AB8FB
:10B9800000F008B800F02CB8404604E0284602E079
:10B99000304600E0384600F06CF84FF00109D4F86A
:10B9A000650008285FD80FF2080101EB80018F467F
:10B9B00000F010B800F025B800F025B800F02AB863
:10B9C00000F02AB800F02FB800F030B800F038B816
:10B9D00000F039B8B4F81500002844D1012040E047
:10B9E000B4F84E00B4F83F10884207D1FFF74DFC81
:10B9F000D4F80210884238BFFFF72EFF4FF000093D
:10BA0000CDE702202DE0E088B4F8151081422AD15C
:10BA1000032026E0042024E0B4F81900218D81429F
:10BA200021D105201DE0C4F865B01CE0A08DB4F85C
:10BA30003B10814217D1D4F8690058B1072010E0BB
:10BA4000C4F865A00FE0B4F83F00B4F84E1081428E
:10BA500006D008E0B4F85220606D0121FCF7EEFE3C
:10BA60000920C4F86500B9F1000F7FF469AFBDE8A3
:10BA7000F88FF8B54AF661060446B0F80F50C2F2E6
:10BA80000006D6F86500411E18BF012122889542A4
:10BA900024D2012807D0072812D8012303FA00F086
:10BAA00010F0A80F0CD0D4F80B30706DB2F5007FF9
:10BAB000009028BF4FF400720120FFF7E0FE2288BB
:10BAC000501B87B2042F28BF0427D4F8020040B1CE
:10BAD00028443278F9B2FFF743FB03E00020002747
:10BAE00001E000203D4442F21401C4F201010A6861
:10BAF000D207FCD007B10865A4F80F50F8BD42F298
:10BB0000180043F60372C4F2010001689143002259
:10BB1000016048F22010C2F20000C16AC26249F21C
:10BB20004D12022908BF4BF2E73204D1436B3BB1FF
:10BB3000002000211847026B12B10020002110479D
:10BB400070472DE9F04148F2201442F26408C2F235
:10BB50000004C4F20108A67BFFF780FB61898842DC
:10BB60001BD2A08BC8B1F7B2A08BB8423FBFA08B4D
:10BB7000A073A77B3E46F1B2258B2069A2792844A9
:10BB8000FFF7EEFAA18BC91BA183E9192183218C50
:10BB900001392184C8F80000DEE7BDE8F08180B5F6
:10BBA000FFF72CFB18B1BDE88040FFF785BBFFF71E
:10BBB000ABF930B1FFF7A2F938B1BDE88040FFF72B
:10BBC00069B9BDE88040FFF738B942F22400C4F2F9
:10BBD00001000068C007BDE8804018BFFFF703BA46
:10BBE000FFF794B970B588B0002048F2C404ADF8EE
:10BBF0001C000690EFF31085012080F31088C2F23C
:10BC0000000406A904F11000FFF7A2F849F24D1252
:10BC1000D4F82A10904208BF002903D085F3108879
:10BC200008B070BDE0690028F8D101260B20C4F8E7
:10BC30002A60FEF71FFD85F310880020DDF81A103A
:10BC400001900590CDE90300BDF818000091029025
:10BC500004F11C006946FFF707F8EFF3108486F340
:10BC60001088FCF7B1FD00F003F884F31088D7E7E3
:10BC70000020FEF7B1BD42F2180043F60372C4F291
:10BC8000010001689143016048F220100021C2F2D6
:10BC90000000C162026B12B1002000211047704702
:10BCA0002DE9F84F48F2201442F21405C2F20004C4
:10BCB000C4F20105B4F82080608C0090A68BA77BAD
:10BCC000B4F80AB094F80690D4F814A0FFF7C6FAB6
:10BCD00058453FD2BAF1000F05D01FFA88F00099FD
:10BCE000081A584536DAF8B2B1B281423CBFA673A1
:10BCF000A77B206970B1268B2069F9B24A46B9F159
:10BD0000000F304418BF0122FFF72AFA56FA87F1D4
:10BD1000218300E0A06A2968C907FCD02865208C2F
:10BD200001382084F8B2B4F82080A18B081AA083CF
:10BD3000A68BA08B0028C9D1207958B1FFF78EFAC5
:10BD4000584505D2E86C20F48010E864002000E03B
:10BD500001206071BDE8F88F48F2C401C2F2000111
:10BD60004860704748F2C401C2F200018860704721
:10BD700080B5FCF776FD18B90B200021FEF713FD06
:10BD80000B20FEF709FD49F24D1080BD10B50246AB
:10BD9000FCF759FD1030FEF7FBFF044649F24D1049
:10BDA000844208BFFFF71EFF204610BD80B584B057
:10BDB00000200390019000904AF6E400C2F20000D7
:10BDC0000078012805D0FFE70120FCF763FFFFE7BB
:10BDD000FEE7FFE70198AB2825D8FFE70198103070
:10BDE000AD2805D3FFE70198C0F1AC00009002E058
:10BDF00010200090FFE7019942F20000C0F24000DD
:10BE000000EB0130029002980099FCF706FE0390C7
:10BE1000039849F24D11884201D0FFE703E00198F1
:10BE200010300190D6E7039849F24D1188420AD1AB
:10BE3000FFE742F20000C0F240004FF42C41FCF753
:10BE4000DEFD0390FFE7039804B080BD80B5ADF53B
:10BE5000825D84B048F20000C2F2000000680DF577
:10BE6000805ECEF84C0049F24D1006900E9013A85B
:10BE70004FF48051FCF799FA00F0F8FB06990E9800
:10BE8000884216D1FFE742F20000C0F240000D9058
:10BE90000D9913A804904FF480520592FCF70EFA06
:10BEA000049905981191129011A8FCF7C1FE0E900B
:10BEB000FFE70E9849F24D11884204D1FFE7FCF7E5
:10BEC0008FFE0E90FFE70E9849F24D11884267D120
:10BED000FFE700208DF83300089042F20000C0F226
:10BEE00040000890FFE7089A9DF83300582110FBA6
:10BEF0000120B0F82202002851D0FFE7089A9DF8EF
:10BF00003300582110FB0120B0F820020B90089A52
:10BF10009DF8330010FB0120B0F822020A900020A7
:10BF20000790FFE707980A9988422BD2FFE70B9802
:10BF3000079908440990099943F20000C0F24000B3
:10BF400000EB01300D900D9913A802904FF4805230
:10BF50000392FCF7B3F9029903980F9110909DF8A2
:10BF6000330007990FAAFCF743FE0E900E9849F292
:10BF70004D11884201D0FFE704E0FFE70798013048
:10BF80000790CFE70E9849F24D11884201D0FFE7A4
:10BF900005E09DF8330001308DF83300A3E7FFE79B
:10BFA0000E9849F24D11884204D1FFE7FCF760FE7C
:10BFB0000E90FFE70E9849F24D11884204D1FFE739
:10BFC000FCF7C7FD0E90FFE700F030FB0E9849F23A
:10BFD0004D11884204D1FFE7FFF7E8FE0E90FFE71E
:10BFE0000E98019048F20000C2F2000000680DF5C2
:10BFF000805EDEF84C10884205D1FFE701980DF510
:10C00000825D04B080BDFCF78BFCDEDE10B5A4B011
:10C0100048F20003C2F200031B6823938DF83F002F
:10C020000E910D9200200C9008200B909DF834008A
:10C03000800728B1FFE70120FCF72CFEFFE7FEE7B1
:10C040009DF83F000138014604911C2800F25282FD
:10C0500004990FF2080000EB8100874600F047BA10
:10C0600000F036B800F046BA00F044BA00F042BA28
:10C0700000F040BA00F07BB800F029B900F03ABAFD
:10C0800000F0BEB800F0D3B800F034BA00F032BA15
:10C0900000F030BA00F02EBA00F0E6B800F075B942
:10C0A00000F08DB900F026BA00F024BA00F022BAF0
:10C0B00000F020BA00F01EBA00F01CBA00F01ABA64
:10C0C00000F094B900F0A9B900F0B2B900F0D8B905
:10C0D0000E9818B1FFE706200B9047E00020039070
:10C0E0002290219020901F901E901D901C901B90DC
:10C0F0001BA8FCF754FD0C900C9849F24D11884296
:10C1000033D1FFE71B981C9A1D9BDDF878C0DDF842
:10C110007CE0209C48F28821C2F2000102914C612F
:10C12000C1F810E0C1F80CC08B604A60086021982B
:10C13000229ACA61886148F27D21C2F200010F2073
:10C1400008709DF83F0048F28421C2F20001087097
:10C1500048F28021C2F200012020086048F27C21D0
:10C16000C2F2000101200870FFE7FFE7C2E10E986C
:10C17000B0F5805F03D0FFE706200B903FE00D98FD
:10C1800019904FF480501A900D980A900A98D0F8A0
:10C190000001022807D1FFE74AF6E401C2F20001DC
:10C1A0000220087026E00A98D0F8000104281BD16C
:10C1B000FFE74AF6E401C2F2000101200870FFF730
:10C1C000F5FD0C900C9849F24D1188420BD1FFE718
:10C1D00042F20000C0F240000990099819A9FCF74A
:10C1E0002AFC0C90FFE704E00120FCF753FDFFE779
:10C1F000FEE7FFE719A8FCF71BFD0C90FFE779E1CC
:10C200000E9818B1FFE706200B900FE04AF6E40005
:10C21000C2F200000078022803D0FFE701200B9053
:10C2200003E0FCF7DDFC0C90FFE7FFE762E10E980E
:10C2300018B1FFE706200B9015E04AF6E400C2F2C1
:10C2400000000078012803D0FFE701200B9009E0EF
:10C25000FFF7FCFD0C904AF6E401C2F20001002059
:10C260000870FFE7FFE745E10E9841F203018842BD
:10C2700003D0FFE706200B9028E04AF6E400C2F264
:10C2800000000078022803D0FFE701200B901CE09B
:10C2900000208DF86300ADF860000D980330169013
:10C2A0004FF4805017900D9800788DF863000D982A
:10C2B000B0F80100ADF860009DF86300BDF86010B3
:10C2C00016AAFCF795FC0C90FFE7FFE712E10E9829
:10C2D00041F20301884203D0FFE706200B9053E0B0
:10C2E0004AF6E400C2F200000078012803D0FFE71C
:10C2F00001200B9047E000208DF85700ADF8540066
:10C300000D99033113914FF4805114910D990978CF
:10C310008DF857100D99B1F80110ADF85410089030
:10C3200042F20000C0F240000890089A9DF85700C1
:10C33000582110FB0120B0F82002BDF85410084429
:10C340000790079943F20000C0F2400000EB013073
:10C350000690069813A9FCF76EFB0C900C9849F216
:10C360004D1188420ED1FFE7069813994FF4805281
:10C37000FBF778FF0590059818B1FFE70A200B90AE
:10C38000FFE7FFE7FFE7FFE7B4E00E98012803D0DF
:10C39000FFE706200B9011E04AF6E400C2F200002D
:10C3A0000078022803D0FFE701200B9005E00D98EC
:10C3B0000078FCF765FC0C90FFE7FFE79AE00E9829
:10C3C00018B1FFE706200B900FE04AF6E400C2F236
:10C3D00000000078022803D0FFE701200B9003E063
:10C3E000FCF746FC0C90FFE7FFE783E00E9818B1DE
:10C3F000FFE706200B900FE04AF6E400C2F20000CF
:10C400000078022803D0FFE701200B9003E0FCF73F
:10C41000A0FB0C90FFE7FFE76CE00E9818B1FFE778
:10C4200006200B9003E0FCF78CFB0C90FFE761E02B
:10C430000E98042803D0FFE706200B901FE04FF072
:10C44000FF30129012A8FCF78CFB0C900C9849F26C
:10C450004D11884212D1FFE71298062803D0FFE75A
:10C4600001200B9009E0002011900D9800681190B8
:10C470001198FCF7ABFB0C90FFE7FFE7FFE739E013
:10C480000E9818B1FFE706200B902FE04FF0FF3019
:10C49000109010A8FCF765FB0C900C9849F24D1118
:10C4A000884222D1FFE700200B9048F28821C2F297
:10C4B00000011098086048F27D21C2F200010F20AF
:10C4C00008709DF83F0048F28421C2F20001087014
:10C4D00048F28021C2F200010420086048F27C2169
:10C4E000C2F2000101200870FFE7FFE702E001202F
:10C4F0000B90FFE70B9808281ED1FFE70C9818B99E
:10C50000FFE708200B9016E00C9849F24D11884285
:10C5100003D1FFE700200B900CE00C9842F29A2127
:10C52000884203D1FFE704200B9002E002200B9029
:10C53000FFE7FFE7FFE7FFE70B98019048F20000F5
:10C54000C2F2000000682399884203D1FFE70198F6
:10C5500024B010BDFCF7E4F9024648F20000C2F234
:10C56000000082420CD2B2F5800F15D3930C00204C
:10C57000122B04D8C2F598028A4228BF01207047C6
:10C5800041F6FF70C2F20200824205D8801A0130E3
:10C59000884224BF012070470020704783B002907A
:10C5A0000191029800283FD0FFE70198E0B3FFE730
:10C5B000019900200090C860019A0299C97811730E
:10C5C00001994860019A029949781171019A0121F3
:10C5D0009160019A02998978117201990860019A13
:10C5E00002990978117001990861019A02994979B3
:10C5F000117401994861019A0299097A117501999A
:10C600008861019A0299497A11760199C861019A63
:10C610000299D1F80A10D161019908620199029832
:10C62000D0F80E000862FFE703B0704780B582B013
:10C6300000200190FCF7C2FA0190019849F24D11D7
:10C64000884202D0FFE7FFE7FEE74DF21C30C0F260
:10C650004B00FCF7C5F90190019849F24D11884251
:10C6600002D0FFE7FFE7FEE702B080BD80B582B0F1
:10C67000002001904DF24030C0F24B00FCF7B0F9C1
:10C680000190019849F24D11884202D0FFE7FFE77F
:10C69000FEE7FCF7E5FA0190019849F24D11884256
:10C6A00002D0FFE7FFE7FEE702B080BD80B584B0AF
:10C6B0008DF80F00082002909DF80F0001460191AF
:10C6C0000E2831D801990FF2080000EB810087464F
:10C6D00000F01CB800F01DB800F026B800F024B837
:10C6E00000F022B800F020B800F01EB800F01CB82E
:10C6F00000F01AB800F018B800F013B800F014B841
:10C7000000F012B800F010B800F006B80020029057
:10C710000AE00020029007E00120FCF7BFF9FFE7E4
:10C72000FEE701200290FFE7029804B080BDDEDE44
:10C7300080B584B0022003904CF6EA00C2F20000FB
:10C740000078C007002843D0FFE74CF6E800C2F2AB
:10C75000000000788DF80B004EF68910C2F2000040
:10C7600000788DF80A00072003909DF80B00014621
:10C77000019120B1FFE701980F2806D014E09DF841
:10C780000A00FFF793FF03900EE09DF80A0040F6C1
:10C790008C11C2F2010109684EF68C12C2F200023D
:10C7A000FFF734FC0390FFE74CF6EA01C2F2000108
:10C7B00000200870039840F69011C2F20101087041
:10C7C0009DF80B009DF80A10012200F045F8FFE7E4
:10C7D00048F27C20C2F200000078C007C0B1FFE739
:10C7E00048F27D20C2F20000007848F28421C2F2B3
:10C7F0000001097848F28022C2F20002126800F0BB
:10C8000009F848F27C21C2F2000100200870FFE71D
:10C8100004B080BD80B584B08DF80F008DF80E1087
:10C820000292002001909DF80F009DF80E10029AD0
:10C8300048F28823C2F2000300F014FC0190019832
:10C8400049F24D11884202D0FFE7FFE7FEE704B04E
:10C8500080BDDEDE00BF704780B584B08DF80F006C
:10C860008DF80E100292002001909DF80F009DF8A7
:10C870000E10029A40F69013C2F2010300F001FC80
:10C880000190019849F24D11884202D0FFE7FFE77D
:10C89000FEE704B080BDDEDE80B584B08DF80F0009
:10C8A0008DF80E1002920193019888B9FFE7029863
:10C8B00070B1FFE740F69011C2F201010320087049
:10C8C0009DF80F009DF80E100122FFF7C5FF44E010
:10C8D0000298B0F5005F0ED9FFE740F69011C2F262
:10C8E0000101062008709DF80F009DF80E1001222E
:10C8F000FFF7B2FF30E04CF6EA00C2F20000007829
:10C90000C00768B1FFE740F69010C2F201000122B3
:10C9100002709DF80F009DF80E10FFF79DFF1AE0C2
:10C920009DF80F004CF6E801C2F2000108709DF876
:10C930000E004EF68911C2F200010870029840F60E
:10C940008C11C2F2010108604CF6EA01C2F200014A
:10C9500001200870FFE7FFE7FFE704B080BDDEDEDF
:10C9600000BF704780B592B048F20000C2F20000EC
:10C9700000681190FCF714FC49F24D1005900790E7
:10C9800008A804902421FBF710FD049948F25800F0
:10C99000C2F20000FFF702FE0498FCF721F80599A7
:10C9A00006900698884214D1FFE748F26C00C2F264
:10C9B000000001686A46102050602020106048F294
:10C9C0007000C2F2000003220123FCF700FA079076
:10C9D000FFE7079849F24D11884208D1FFE74DF271
:10C9E0006430C0F24B0000F0BAFA0790FFE70798F6
:10C9F00049F24D11884209D1FFE74CF6E901C2F234
:10CA0000000101200870FCF7FBFAFFE7079803908C
:10CA100048F20000C2F2000000681199884203D178
:10CA2000FFE7039812B080BDFBF77AFF2DE9FC47C2
:10CA300048F2B816C2F2000641B10C4648F26A014B
:10CA4000C2F2000109780431814207D9032700208E
:10CA50003061384600F024FBBDE8FC8794F90120E2
:10CA6000002A01D4E57802E06288120415BA29444C
:10CA7000814201D90627EAE741F69019C2F201097D
:10CA8000D9F80C00B0B129192A1D0DF1060391F84F
:10CA900005802146A75CFCF755FAFBF7D2FD07D1CC
:10CAA000BDF80600C1B28F4208BFB8EB102F01D00D
:10CAB000F827CCE7207800F0E0012029C6D1D9F88A
:10CAC000101009B9C10647D4D6F81080B8F1000F8C
:10CAD00010D0B1680A784240120704D14A786378CE
:10CAE0005A4092063AD04FF000084FF0010AC6F8BB
:10CAF000108003E04FF0010A4FF000080027C00645
:10CB000010D5B8F1000F0DD1F0680028B2D005F1B2
:10CB100004088045AED8B06821464246FBF7CEFBFC
:10CB2000C6F81080BAF1000F3FF491AF2078C1062B
:10CB300010D46178D9F8007000F00F00B8F1000F40
:10CB400001F03F0115D0B368A8F104020433B847DF
:10CB500000203061BDE8FC87012778E7F268424594
:10CB600003D9A2EB0802AA4208D206274FF0000A16
:10CB7000C5E7231D2A46B847BDE8FC8701EB08003E
:10CB8000211D2A46FBF79AFBA84400274FF0010A13
:10CB9000C6F810802078B2E7032000F081BA2DE9B2
:10CBA000FC4148F2B818002649F24D15044600270A
:10CBB000A842C2F200088DF8076009D1D8F8040035
:10CBC0000DF1070100F002F9401BB0FA80F04709AF
:10CBD000C8F8046000F06FF9AC420AD14FB19DF87B
:10CBE000070030B141F69010C2F20100406800B178
:10CBF0008047BDE8FC81F0B542F29A23002A52D06A
:10CC0000002850D04C1E14F10B0F4CD8EFF31084B9
:10CC1000012383F31088D0F8125001F1090315B1F4
:10CC2000FBF71BFD05D94568D0F80E60AD1BAB4284
:10CC300017D9FBF712FD06D2D0F80A50D0F80E60D3
:10CC4000AD1BAB420DD3FBF708FD28D9D0F80A5035
:10CC5000AB4224D20568D0F80E600027AF55C0F86B
:10CC60000E700568D0F80E60AF5D07F0FC07013765
:10CC7000AF553544C5F805100021C5F80110D0F8AE
:10CC80000E101160D0F812101944C0F81210D0F82C
:10CC90000E10194449F24D13C0F80E1001E04BF28A
:10CCA000E73384F310881846F0BD80B142688A42A9
:10CCB0000DD9026800891144D1F80120D1F805305E
:10CCC0009B1A834206D91044C1F801000AE042F2DF
:10CCD0009A2070470020C1F80100087800F0FC009D
:10CCE0000230087049F24D107047B0B5044642F268
:10CCF0009A20DCB1D2B129B12089884224BF616871
:10CD0000994202D842F29A20B0BD2068C418D4F8E3
:10CD1000014014F10A0FF5D8CD1A04F10901A94216
:10CD2000F0D219440844106049F24D10B0BD10B55E
:10CD3000044642F29A2074B169B162B163B1002035
:10CD4000C4F80A00C4F80E00238162602160C4F8B0
:10CD5000120049F24D1010BD42F29A2010BD70B57C
:10CD600042F29A2380B379B3D0F8123053B30368F8
:10CD7000D0F80A401D5D05F003050AB9022D01D067
:10CD8000032D1FD11C440026D4F80120D0F80A50EE
:10CD9000AD1846F10006093556F1000512D1058996
:10CDA0000D80D0F80A001044184453190930C1F816
:10CDB0000200D4F80500834249F24D1384BF801A63
:10CDC000088001E04BF2E733184670BDF8B5B0B308
:10CDD0000A46A1B30546044655F80A0F2168D4F85F
:10CDE0001230002B3ED00144087800F00303012BE1
:10CDF00038D040F00300D1F801300870D1F80500B8
:10CE00002789C61ABE42064688BFDE1916F10A0FE8
:10CE1000C1F8016026D86FF009039F1B2B68BB4245
:10CE200020D80027B04298BF01271770092E28BFCD
:10CE3000B04207D8B0423BD809369F190EE042F203
:10CE40009A20F8BD801B00229F19C1F805002068B8
:10CE5000C1F8012009223844FBF730FAD4F8120057
:10CE6000B04202D24BF2E730F8BDEFF3108001215F
:10CE700081F31088C4F80A70D4F81210891BC4F822
:10CE80001210D4F8121051B16168D4F80A208A4205
:10CE90000AD22168D4F80A20895C39B904E000215B
:10CEA00004F10E05C4F80A100021296080F31088EF
:10CEB00049F24D10F8BD2DE9FC41002048F2B817A9
:10CEC0004BF2E735ADF804000090EFF31086012037
:10CED00080F31088C2F20007786800284BF2E73030
:10CEE0001ED107F14E04694601222046FFF737FFA5
:10CEF000A84204D0FBF7A5FB12D17C600EE007F13D
:10CF00003805694601222846FFF729FF4BF2E7382A
:10CF1000404517D0FBF795FB02D17D6049F24D10DB
:10CF200086F31088FBF78DFB0AD141F69010DDF8EF
:10CF30000210C2F2010080680269BDF8000090474B
:10CF4000BDE8FC81694620460022FFF708FF404506
:10CF5000D0D1694628460022FFF701FFDAE7F8B58D
:10CF600068B10446006850B1A06840B1606A30B151
:10CF7000A06A20B1A18D0020B0EB113F02D042F297
:10CF80009A20F8BD48F2B817636A6169A269A56A78
:10CF9000C2F200073E1D386129C6A38D07F1380093
:10CFA000FFF7C5FE49F24D15A842EAD1A38DE1690C
:10CFB000226A07F14E00FFF7BAFEA842E1D1E0680D
:10CFC000002818BF0120410048F26A00C2F20000A8
:10CFD0000170A08D04318842D1D9401A3880A068F0
:10CFE00081680029CBD0C1680029C8D00168002918
:10CFF000C5D041680029C2D000690028BFD041F6E1
:10D00000901521462E22C2F201052846FBF756F95B
:10D01000E16831B107F114060D223046FBF74EF9F5
:10D0200000E00026EE6007F12406A16814223046D5
:10D03000FBF744F9AE604CF69931A068C0F24B01A1
:10D0400082684CF62D20C0F24B009047A068C16862
:10D050004CF69F30C0F24B008847A8680068BDE8D6
:10D06000F84000471CB514460A4601461CB113B9E6
:10D0700042F29A201CBD00930320234600F01DF8C5
:10D080001CBD1CB514460A4601461CB113B942F238
:10D090009A201CBD00930220234600F00EF81CBD10
:10D0A000E0B58DF807000DF10700002107220123EC
:10D0B0000090032000F001F88CBD2DE9F04F87B0FF
:10D0C00048F2B816834641F6901090461C468946B1
:10D0D000C2F20006C2F2010032889A4201D200690F
:10D0E00018B312B3109804B1F8B10027A01806972E
:10D0F00047F10001013861F100010023FBF727F837
:10D10000054648F26A00002C06F1380AC2F2000017
:10D1100008BF01250078011D2046BBF1020FE1FB8D
:10D12000050708BF06F14E0A2FB142F29A2738468A
:10D1300007B0BDE8F08F039105FB014106AA5046F8
:10D14000FFF759FD07464BF2E73087427DD049F2A1
:10D150004D10039987426ED109F00F00A14649F2A4
:10D160004D1740EA4B10029008F03F000190002D4F
:10D1700061D0002036880590B14598BF4E4601EB3E
:10D180000608069B504605AA1FFA88F1FFF7ADFD79
:10D19000074649F24D10874244D10598310A817003
:10D1A0000021C670FF2E88BF0121019AB9EB060B42
:10D1B00042EAC1114170594618BF0121029A42EA60
:10D1C0000111017046B1A4EB0900109932460144E7
:10D1D00005980430FBF772F841F69010C2F2010096
:10D1E000C068B8B100210DF11203ADF812106FF054
:10D1F000010111FA88F605993246FBF7A3FE9DF866
:10D2000012000599885505989DF8131010FA88F0BA
:10D2100000F8011C06995046FFF747FDFBF711FA8D
:10D2200001D015E0CB4648F2B816013DD946039926
:10D23000C2F200069BE749F24D1087427FF477AFB8
:10D24000FFF739FE49F24D1771E74DF281676EE73E
:10D2500007466CE74FF24001C4F2000108607047D6
:10D26000F1EE100A4FF6FF71C0F2C03120EA010062
:10D2700040F04070E1EE100A7047DEDEC3000000AF
:10D28000000000000000000074F0004078F0004052
:10D290007CF0004080F0004000F0004010F00040C2
:10D2A00020F0004030F0004004F0004014F0004056
:10D2B00024F0004034F000400300000001000000B2
:10D2C0000100000000000000100104403001044093
:10D2D000500104407001044090010440B00104403A
:10D2E000D0010440F00104400C0104402C01044032
:10D2F0004C0104406C0104408C010440AC0104402A
:10D30000CC010440EC010440AD8E4B0055C84B00ED
:10D31000738E4B00918E4B00218F4B000300000059
:10D3200000000000030000000000000002000000F8
:10D3300002000000000000000000000000000000EB
:10D3400000000000000000000300000000000000DA
:10D3500000000000000000000000000000000000CD
:10D360000000000099C84B0061C94B0008D34B0076
:10D370000000000001000000ECC800209D2000001B
:10D380009011012000080000E8A800200020000003
:10D390004000DEDEDEDEDEDEDEDEDEDEDEDEDEDE29
:10D3A000DEDEDEDEDEDEDEDEDEDEDEDEDEDEDEDE9D
:10D3B000DEDEDEDEDEDEDEDEDEDEDEDEDEDEDEDE8D
:10D3C000DEDEDEDEDEDEDEDEDEDEDEDEDEDEDEDE7D
:10D3D000DEDEDEDEDEDEDEDEDEDEDEDEDEDEDEDE6D
:10D3E000DEDEDEDEDEDEDEDEDEDEDEDEDEDEDEDE5D
:10D3F000DEDEDEDEDEDEDEDEDEDEDEDEDEDEDEDE4D
:10D4000000F0012069884B000D844B000D844B0017
:10D410000D844B000D844B000D844B000000000078
:10D420000000000000000000000000000D844B0020
:10D430000D844B00000000000D844B000D844B0058
:10D440000D844B000D844B000D844B000D844B006C
:10D450000D844B000D844B000D844B000D844B005C
:10D460000D844B000D844B000D844B000D844B004C
:10D470000D844B000D844B000D844B000D844B003C
:10D480000D844B000D844B000D844B000D844B002C
:10D4900015844B002D844B0045844B005D844B006C
:10D4A00075844B008D844B000D844B000D844B0024
:10D4B000A5844B00BD844B000D844B000D844B00B4
:10D4C0000D844B000D844B000D844B000D844B00EC
:10D4D0000D844B00D5844B00ED844B000D844B0034
:10D4E00005854B001D854B000D844B0035854B0099
:10D4F0004D854B000D844B0065854B000D844B0022
:10D500000D844B000D844B000D844B000D844B00AB
:10D510000D844B000D844B000D844B000D844B009B
:10D520000D844B000D844B000D844B000D844B008B
:10D530000D844B000D844B000D844B000D844B007B
:10D540000D844B000D844B000D844B000D844B006B
:10D550000D844B000D844B000D844B000D844B005B
:10D560000D844B000D844B000D844B000D844B004B
:10D570000D844B000D844B000D844B000D844B003B
:10D580000D844B000D844B000D844B000D844B002B
:10D590000D844B000D844B000D844B00BCD54B001B
:10D5A0000080002094000000E4804B0050D64B0027
:10D5B000948000202C99000004814B0053544F505C
:10D5C0000A0000006C810020010000000000000043
:10D5D0000001044002000000020000000200000000
:10D5E0000200000002000000020000000200000033
:10D5F0000200000000000000000000000000000029
:10D60000000000000000000000000000000000001A
:10D6100000000000030003000002000002001900E7
:10D62000000000000000020000B4C40440420F00EB
:10D63000404B4C0000000000010001000000010010
:10D6400001010100000000000000000000000000D7
:10D65000DEDEDEDEDEDEDEDEDEDEDEDEDEDEDEDEEA
:10D66000DEDEDEDEDEDEDEDEDEDEDEDEDEDEDEDEDA
:10D67000DEDEDEDEDEDEDEDEDEDEDEDEDEDEDEDECA
:10D68000DEDEDEDEDEDEDEDEDEDEDEDEDEDEDEDEBA
:04000005004B8869BB
:00000001FF
